{
  "contractName": "Admin",
  "abi": [
    {
      "inputs": [],
      "name": "adminAddress",
      "outputs": [
        {
          "internalType": "address",
          "name": "",
          "type": "address"
        }
      ],
      "stateMutability": "view",
      "type": "function",
      "constant": true
    },
    {
      "inputs": [],
      "name": "adminName",
      "outputs": [
        {
          "internalType": "string",
          "name": "",
          "type": "string"
        }
      ],
      "stateMutability": "view",
      "type": "function",
      "constant": true
    },
    {
      "inputs": [
        {
          "internalType": "uint256",
          "name": "",
          "type": "uint256"
        }
      ],
      "name": "doctorIds",
      "outputs": [
        {
          "internalType": "uint256",
          "name": "",
          "type": "uint256"
        }
      ],
      "stateMutability": "view",
      "type": "function",
      "constant": true
    },
    {
      "inputs": [],
      "name": "isAdminPresent",
      "outputs": [
        {
          "internalType": "bool",
          "name": "",
          "type": "bool"
        }
      ],
      "stateMutability": "view",
      "type": "function",
      "constant": true
    },
    {
      "inputs": [],
      "name": "isLoggedIn",
      "outputs": [
        {
          "internalType": "bool",
          "name": "",
          "type": "bool"
        }
      ],
      "stateMutability": "view",
      "type": "function",
      "constant": true
    },
    {
      "inputs": [
        {
          "internalType": "uint256",
          "name": "",
          "type": "uint256"
        }
      ],
      "name": "registeredDoctors",
      "outputs": [
        {
          "internalType": "address",
          "name": "",
          "type": "address"
        }
      ],
      "stateMutability": "view",
      "type": "function",
      "constant": true
    },
    {
      "inputs": [
        {
          "internalType": "string",
          "name": "_uniqueId",
          "type": "string"
        },
        {
          "internalType": "string",
          "name": "_reportHash",
          "type": "string"
        },
        {
          "internalType": "string[]",
          "name": "_medicens",
          "type": "string[]"
        },
        {
          "internalType": "address",
          "name": "_issuedBy",
          "type": "address"
        },
        {
          "internalType": "address",
          "name": "_issuedTo",
          "type": "address"
        },
        {
          "internalType": "string",
          "name": "_patientName",
          "type": "string"
        },
        {
          "internalType": "string",
          "name": "_doctorName",
          "type": "string"
        }
      ],
      "name": "addRecord",
      "outputs": [],
      "stateMutability": "nonpayable",
      "type": "function"
    },
    {
      "inputs": [
        {
          "internalType": "string",
          "name": "_uniqueId",
          "type": "string"
        }
      ],
      "name": "getRecord",
      "outputs": [
        {
          "internalType": "string",
          "name": "",
          "type": "string"
        },
        {
          "internalType": "string",
          "name": "",
          "type": "string"
        },
        {
          "internalType": "string[]",
          "name": "",
          "type": "string[]"
        },
        {
          "internalType": "address",
          "name": "",
          "type": "address"
        },
        {
          "internalType": "address",
          "name": "",
          "type": "address"
        },
        {
          "internalType": "string",
          "name": "",
          "type": "string"
        },
        {
          "internalType": "string",
          "name": "",
          "type": "string"
        }
      ],
      "stateMutability": "view",
      "type": "function",
      "constant": true
    },
    {
      "inputs": [
        {
          "internalType": "address",
          "name": "_addr",
          "type": "address"
        }
      ],
      "name": "getPatient",
      "outputs": [
        {
          "internalType": "string",
          "name": "",
          "type": "string"
        },
        {
          "internalType": "address",
          "name": "",
          "type": "address"
        },
        {
          "internalType": "uint256",
          "name": "",
          "type": "uint256"
        },
        {
          "internalType": "string[]",
          "name": "",
          "type": "string[]"
        }
      ],
      "stateMutability": "view",
      "type": "function",
      "constant": true
    },
    {
      "inputs": [],
      "name": "isAdminCreated",
      "outputs": [
        {
          "internalType": "bool",
          "name": "",
          "type": "bool"
        }
      ],
      "stateMutability": "view",
      "type": "function",
      "constant": true
    },
    {
      "inputs": [
        {
          "internalType": "string",
          "name": "name",
          "type": "string"
        }
      ],
      "name": "registerAdmin",
      "outputs": [],
      "stateMutability": "nonpayable",
      "type": "function"
    },
    {
      "inputs": [],
      "name": "getAdmin",
      "outputs": [
        {
          "internalType": "string",
          "name": "",
          "type": "string"
        },
        {
          "internalType": "address",
          "name": "",
          "type": "address"
        },
        {
          "internalType": "uint256[]",
          "name": "",
          "type": "uint256[]"
        },
        {
          "internalType": "uint256[]",
          "name": "",
          "type": "uint256[]"
        },
        {
          "internalType": "address[]",
          "name": "",
          "type": "address[]"
        },
        {
          "internalType": "address[]",
          "name": "",
          "type": "address[]"
        }
      ],
      "stateMutability": "view",
      "type": "function",
      "constant": true
    },
    {
      "inputs": [],
      "name": "loginAdmin",
      "outputs": [],
      "stateMutability": "nonpayable",
      "type": "function"
    },
    {
      "inputs": [
        {
          "internalType": "uint256",
          "name": "_id",
          "type": "uint256"
        }
      ],
      "name": "addDoctorUniqueId",
      "outputs": [],
      "stateMutability": "nonpayable",
      "type": "function"
    },
    {
      "inputs": [
        {
          "internalType": "uint256",
          "name": "_id",
          "type": "uint256"
        }
      ],
      "name": "addPatientUniqueId",
      "outputs": [],
      "stateMutability": "nonpayable",
      "type": "function"
    },
    {
      "inputs": [
        {
          "internalType": "uint256",
          "name": "_id",
          "type": "uint256"
        }
      ],
      "name": "checkDoctorUniqueIdPresent",
      "outputs": [
        {
          "internalType": "bool",
          "name": "",
          "type": "bool"
        }
      ],
      "stateMutability": "view",
      "type": "function",
      "constant": true
    },
    {
      "inputs": [
        {
          "internalType": "uint256",
          "name": "_uid",
          "type": "uint256"
        }
      ],
      "name": "checkPatientUniqueIdPresent",
      "outputs": [
        {
          "internalType": "bool",
          "name": "",
          "type": "bool"
        }
      ],
      "stateMutability": "view",
      "type": "function",
      "constant": true
    },
    {
      "inputs": [],
      "name": "isDoctorRegisterd",
      "outputs": [
        {
          "internalType": "bool",
          "name": "",
          "type": "bool"
        }
      ],
      "stateMutability": "view",
      "type": "function",
      "constant": true
    },
    {
      "inputs": [
        {
          "internalType": "string",
          "name": "_name",
          "type": "string"
        },
        {
          "internalType": "uint256",
          "name": "id",
          "type": "uint256"
        }
      ],
      "name": "registerDoctor",
      "outputs": [],
      "stateMutability": "nonpayable",
      "type": "function"
    },
    {
      "inputs": [],
      "name": "loginDoctor",
      "outputs": [],
      "stateMutability": "nonpayable",
      "type": "function"
    },
    {
      "inputs": [],
      "name": "getDoctor",
      "outputs": [
        {
          "internalType": "string",
          "name": "",
          "type": "string"
        },
        {
          "internalType": "address",
          "name": "",
          "type": "address"
        },
        {
          "internalType": "uint256",
          "name": "",
          "type": "uint256"
        },
        {
          "internalType": "address[]",
          "name": "",
          "type": "address[]"
        },
        {
          "internalType": "string[]",
          "name": "",
          "type": "string[]"
        }
      ],
      "stateMutability": "view",
      "type": "function",
      "constant": true
    },
    {
      "inputs": [
        {
          "internalType": "string",
          "name": "_name",
          "type": "string"
        },
        {
          "internalType": "uint256",
          "name": "_uniqueId",
          "type": "uint256"
        }
      ],
      "name": "registerPatient",
      "outputs": [],
      "stateMutability": "nonpayable",
      "type": "function"
    },
    {
      "inputs": [],
      "name": "loginPatient",
      "outputs": [],
      "stateMutability": "nonpayable",
      "type": "function"
    },
    {
      "inputs": [],
      "name": "isPatientRegistered",
      "outputs": [
        {
          "internalType": "bool",
          "name": "",
          "type": "bool"
        }
      ],
      "stateMutability": "view",
      "type": "function",
      "constant": true
    },
    {
      "inputs": [
        {
          "internalType": "address",
          "name": "_addr",
          "type": "address"
        }
      ],
      "name": "getAllRegisteredDoctors",
      "outputs": [
        {
          "components": [
            {
              "internalType": "string",
              "name": "name",
              "type": "string"
            },
            {
              "internalType": "address",
              "name": "doctorAddress",
              "type": "address"
            },
            {
              "internalType": "uint256",
              "name": "id",
              "type": "uint256"
            },
            {
              "internalType": "string[]",
              "name": "recordsIssued",
              "type": "string[]"
            },
            {
              "internalType": "address[]",
              "name": "patientsTreated",
              "type": "address[]"
            },
            {
              "internalType": "bool",
              "name": "appoint",
              "type": "bool"
            }
          ],
          "internalType": "struct Admin.doctorStruct[]",
          "name": "",
          "type": "tuple[]"
        }
      ],
      "stateMutability": "view",
      "type": "function",
      "constant": true
    },
    {
      "inputs": [
        {
          "internalType": "address",
          "name": "doctor",
          "type": "address"
        }
      ],
      "name": "addPatientRequested",
      "outputs": [],
      "stateMutability": "nonpayable",
      "type": "function"
    }
  ],
  "bytecode": "0x608060405260405162000012906200009e565b604051809103906000f0801580156200002f573d6000803e3d6000fd5b506000806101000a81548173ffffffffffffffffffffffffffffffffffffffff021916908373ffffffffffffffffffffffffffffffffffffffff1602179055506000600360006101000a81548160ff0219169083151502179055503480156200009757600080fd5b50620000ac565b612431806200576283390190565b6156a680620000bc6000396000f3fe608060405234801561001057600080fd5b506004361061018e5760003560e01c80639babbcf5116100de578063b5368e2011610097578063ce79708811610071578063ce79708814610483578063d79984711461049f578063eb1bb3a0146104bd578063fc6f9468146104c75761018e565b8063b5368e2014610404578063b89c300614610437578063c1620495146104675761018e565b80639babbcf5146103445780639e0775cd14610360578063a8a23e3914610390578063a970aa7b146103ae578063ade503d9146103de578063adecd5e6146103e85761018e565b80632de304ed1161014b5780636e0238e6116101255780636e0238e6146102c95780636e9960c3146102e75780638b5c93351461030a578063997f4a44146103145761018e565b80632de304ed1461026d5780632e744976146102895780633aaa5920146102a75761018e565b806304c428861461019357806308febb38146101c357806311dd8845146101e1578063136bd1481461021757806315d73b981461023357806320ede3a214610251575b600080fd5b6101ad60048036038101906101a89190611d0f565b6104e5565b6040516101ba9190611d7d565b60405180910390f35b6101cb610524565b6040516101d89190611db3565b60405180910390f35b6101fb60048036038101906101f69190611f14565b610537565b60405161020e97969594939291906120e8565b60405180910390f35b610231600480360381019061022c919061217a565b6105fa565b005b61023b6107d4565b6040516102489190611db3565b60405180910390f35b61026b60048036038101906102669190611f14565b610828565b005b6102876004803603810190610282919061217a565b610897565b005b610291610a71565b60405161029e9190611db3565b60405180910390f35b6102af610a88565b6040516102c09594939291906122a3565b60405180910390f35b6102d1610d40565b6040516102de9190611db3565b60405180910390f35b6102ef610d53565b604051610301969594939291906123c9565b60405180910390f35b610312610fde565b005b61032e60048036038101906103299190611d0f565b610ffb565b60405161033b919061244d565b60405180910390f35b61035e6004803603810190610359919061257a565b61101f565b005b61037a60048036038101906103759190611d0f565b611181565b6040516103879190611db3565b60405180910390f35b6103986111ab565b6040516103a591906126a8565b60405180910390f35b6103c860048036038101906103c39190611d0f565b611239565b6040516103d59190611db3565b60405180910390f35b6103e6611263565b005b61040260048036038101906103fd91906126ca565b611324565b005b61041e600480360381019061041991906126ca565b6113f1565b60405161042e94939291906126f7565b60405180910390f35b610451600480360381019061044c91906126ca565b611632565b60405161045e91906129a7565b60405180910390f35b610481600480360381019061047c9190611d0f565b611a72565b005b61049d60048036038101906104989190611d0f565b611aca565b005b6104a7611b22565b6040516104b49190611db3565b60405180910390f35b6104c5611b76565b005b6104cf611c37565b6040516104dc9190611d7d565b60405180910390f35b600581815481106104f557600080fd5b906000526020600020016000915054906101000a900473ffffffffffffffffffffffffffffffffffffffff1681565b600660009054906101000a900460ff1681565b606080606060008060608060008054906101000a900473ffffffffffffffffffffffffffffffffffffffff1673ffffffffffffffffffffffffffffffffffffffff166311dd8845896040518263ffffffff1660e01b815260040161059b91906126a8565b600060405180830381865afa1580156105b8573d6000803e3d6000fd5b505050506040513d6000823e3d601f19601f820116820180604052508101906105e19190612b03565b9650965096509650965096509650919395979092949650565b600060405161060890611c5d565b604051809103906000f080158015610624573d6000803e3d6000fd5b5090508073ffffffffffffffffffffffffffffffffffffffff1663017349108484336040518463ffffffff1660e01b815260040161066493929190612c31565b600060405180830381600087803b15801561067e57600080fd5b505af1158015610692573d6000803e3d6000fd5b5050505080600c60003373ffffffffffffffffffffffffffffffffffffffff1673ffffffffffffffffffffffffffffffffffffffff16815260200190815260200160002060006101000a81548173ffffffffffffffffffffffffffffffffffffffff021916908373ffffffffffffffffffffffffffffffffffffffff1602179055506001600b60003373ffffffffffffffffffffffffffffffffffffffff1673ffffffffffffffffffffffffffffffffffffffff16815260200190815260200160002060006101000a81548160ff0219169083151502179055506005339080600181540180825580915050600190039060005260206000200160009091909190916101000a81548173ffffffffffffffffffffffffffffffffffffffff021916908373ffffffffffffffffffffffffffffffffffffffff160217905550505050565b6000600d60003373ffffffffffffffffffffffffffffffffffffffff1673ffffffffffffffffffffffffffffffffffffffff16815260200190815260200160002060009054906101000a900460ff16905090565b6001600360006101000a81548160ff02191690831515021790555033600160006101000a81548173ffffffffffffffffffffffffffffffffffffffff021916908373ffffffffffffffffffffffffffffffffffffffff16021790555080600290816108939190612e7b565b5050565b60006040516108a590611c6a565b604051809103906000f0801580156108c1573d6000803e3d6000fd5b5090508073ffffffffffffffffffffffffffffffffffffffff1663c30d742e8484336040518463ffffffff1660e01b815260040161090193929190612c31565b600060405180830381600087803b15801561091b57600080fd5b505af115801561092f573d6000803e3d6000fd5b5050505080600e60003373ffffffffffffffffffffffffffffffffffffffff1673ffffffffffffffffffffffffffffffffffffffff16815260200190815260200160002060006101000a81548173ffffffffffffffffffffffffffffffffffffffff021916908373ffffffffffffffffffffffffffffffffffffffff1602179055506001600d60003373ffffffffffffffffffffffffffffffffffffffff1673ffffffffffffffffffffffffffffffffffffffff16815260200190815260200160002060006101000a81548160ff0219169083151502179055506008339080600181540180825580915050600190039060005260206000200160009091909190916101000a81548173ffffffffffffffffffffffffffffffffffffffff021916908373ffffffffffffffffffffffffffffffffffffffff160217905550505050565b6000600360009054906101000a900460ff16905090565b60606000806060806000600c60003373ffffffffffffffffffffffffffffffffffffffff1673ffffffffffffffffffffffffffffffffffffffff16815260200190815260200160002060009054906101000a900473ffffffffffffffffffffffffffffffffffffffff1690508073ffffffffffffffffffffffffffffffffffffffff166317d7de7c6040518163ffffffff1660e01b8152600401600060405180830381865afa158015610b3f573d6000803e3d6000fd5b505050506040513d6000823e3d601f19601f82011682018060405250810190610b689190612f4d565b8173ffffffffffffffffffffffffffffffffffffffff1663ff76a7396040518163ffffffff1660e01b8152600401602060405180830381865afa158015610bb3573d6000803e3d6000fd5b505050506040513d601f19601f82011682018060405250810190610bd79190612f96565b8273ffffffffffffffffffffffffffffffffffffffff1663a2296af66040518163ffffffff1660e01b8152600401602060405180830381865afa158015610c22573d6000803e3d6000fd5b505050506040513d601f19601f82011682018060405250810190610c469190612fd8565b8373ffffffffffffffffffffffffffffffffffffffff16631b141e756040518163ffffffff1660e01b8152600401600060405180830381865afa158015610c91573d6000803e3d6000fd5b505050506040513d6000823e3d601f19601f82011682018060405250810190610cba91906130c8565b8473ffffffffffffffffffffffffffffffffffffffff1663a9757c806040518163ffffffff1660e01b8152600401600060405180830381865afa158015610d05573d6000803e3d6000fd5b505050506040513d6000823e3d601f19601f82011682018060405250810190610d2e9190613111565b95509550955095509550509091929394565b600360009054906101000a900460ff1681565b606060006060806060806002600160009054906101000a900473ffffffffffffffffffffffffffffffffffffffff166004600760056008858054610d9690612c9e565b80601f0160208091040260200160405190810160405280929190818152602001828054610dc290612c9e565b8015610e0f5780601f10610de457610100808354040283529160200191610e0f565b820191906000526020600020905b815481529060010190602001808311610df257829003601f168201915b5050505050955083805480602002602001604051908101604052809291908181526020018280548015610e6157602002820191906000526020600020905b815481526020019060010190808311610e4d575b5050505050935082805480602002602001604051908101604052809291908181526020018280548015610eb357602002820191906000526020600020905b815481526020019060010190808311610e9f575b5050505050925081805480602002602001604051908101604052809291908181526020018280548015610f3b57602002820191906000526020600020905b8160009054906101000a900473ffffffffffffffffffffffffffffffffffffffff1673ffffffffffffffffffffffffffffffffffffffff1681526020019060010190808311610ef1575b5050505050915080805480602002602001604051908101604052809291908181526020018280548015610fc357602002820191906000526020600020905b8160009054906101000a900473ffffffffffffffffffffffffffffffffffffffff1673ffffffffffffffffffffffffffffffffffffffff1681526020019060010190808311610f79575b50505050509050955095509550955095509550909192939495565b6001600660006101000a81548160ff021916908315150217905550565b6004818154811061100b57600080fd5b906000526020600020016000915090505481565b60008054906101000a900473ffffffffffffffffffffffffffffffffffffffff1673ffffffffffffffffffffffffffffffffffffffff1663696cbf3088888888888888600c60008e73ffffffffffffffffffffffffffffffffffffffff1673ffffffffffffffffffffffffffffffffffffffff16815260200190815260200160002060009054906101000a900473ffffffffffffffffffffffffffffffffffffffff16600e60008e73ffffffffffffffffffffffffffffffffffffffff1673ffffffffffffffffffffffffffffffffffffffff16815260200190815260200160002060009054906101000a900473ffffffffffffffffffffffffffffffffffffffff166040518a63ffffffff1660e01b8152600401611146999897969594939291906131d0565b600060405180830381600087803b15801561116057600080fd5b505af1158015611174573d6000803e3d6000fd5b5050505050505050505050565b6000600a600083815260200190815260200160002060009054906101000a900460ff169050919050565b600280546111b890612c9e565b80601f01602080910402602001604051908101604052809291908181526020018280546111e490612c9e565b80156112315780601f1061120657610100808354040283529160200191611231565b820191906000526020600020905b81548152906001019060200180831161121457829003601f168201915b505050505081565b60006009600083815260200190815260200160002060009054906101000a900460ff169050919050565b600c60003373ffffffffffffffffffffffffffffffffffffffff1673ffffffffffffffffffffffffffffffffffffffff16815260200190815260200160002060009054906101000a900473ffffffffffffffffffffffffffffffffffffffff1673ffffffffffffffffffffffffffffffffffffffff1663b34e97e86040518163ffffffff1660e01b8152600401600060405180830381600087803b15801561130a57600080fd5b505af115801561131e573d6000803e3d6000fd5b50505050565b600c60008273ffffffffffffffffffffffffffffffffffffffff1673ffffffffffffffffffffffffffffffffffffffff16815260200190815260200160002060009054906101000a900473ffffffffffffffffffffffffffffffffffffffff1673ffffffffffffffffffffffffffffffffffffffff1663adecd5e6336040518263ffffffff1660e01b81526004016113bc9190611d7d565b600060405180830381600087803b1580156113d657600080fd5b505af11580156113ea573d6000803e3d6000fd5b5050505050565b606060008060606000600e60008773ffffffffffffffffffffffffffffffffffffffff1673ffffffffffffffffffffffffffffffffffffffff16815260200190815260200160002060009054906101000a900473ffffffffffffffffffffffffffffffffffffffff1690508073ffffffffffffffffffffffffffffffffffffffff166317d7de7c6040518163ffffffff1660e01b8152600401600060405180830381865afa1580156114a7573d6000803e3d6000fd5b505050506040513d6000823e3d601f19601f820116820180604052508101906114d09190612f4d565b8173ffffffffffffffffffffffffffffffffffffffff166338cc48316040518163ffffffff1660e01b8152600401602060405180830381865afa15801561151b573d6000803e3d6000fd5b505050506040513d601f19601f8201168201806040525081019061153f9190612f96565b8273ffffffffffffffffffffffffffffffffffffffff1663ab63d7f26040518163ffffffff1660e01b8152600401602060405180830381865afa15801561158a573d6000803e3d6000fd5b505050506040513d601f19601f820116820180604052508101906115ae9190612fd8565b8373ffffffffffffffffffffffffffffffffffffffff16638eff3c296040518163ffffffff1660e01b8152600401600060405180830381865afa1580156115f9573d6000803e3d6000fd5b505050506040513d6000823e3d601f19601f820116820180604052508101906116229190613111565b9450945094509450509193509193565b6060600060058054905067ffffffffffffffff81111561165557611654611de9565b5b60405190808252806020026020018201604052801561168e57816020015b61167b611c77565b8152602001906001900390816116735790505b50905060005b600580549050811015611a68576000600c6000600584815481106116bb576116ba613280565b5b9060005260206000200160009054906101000a900473ffffffffffffffffffffffffffffffffffffffff1673ffffffffffffffffffffffffffffffffffffffff1673ffffffffffffffffffffffffffffffffffffffff16815260200190815260200160002060009054906101000a900473ffffffffffffffffffffffffffffffffffffffff1690506040518060c001604052808273ffffffffffffffffffffffffffffffffffffffff166317d7de7c6040518163ffffffff1660e01b8152600401600060405180830381865afa158015611799573d6000803e3d6000fd5b505050506040513d6000823e3d601f19601f820116820180604052508101906117c29190612f4d565b81526020018273ffffffffffffffffffffffffffffffffffffffff1663ff76a7396040518163ffffffff1660e01b8152600401602060405180830381865afa158015611812573d6000803e3d6000fd5b505050506040513d601f19601f820116820180604052508101906118369190612f96565b73ffffffffffffffffffffffffffffffffffffffff1681526020018273ffffffffffffffffffffffffffffffffffffffff1663a2296af66040518163ffffffff1660e01b8152600401602060405180830381865afa15801561189c573d6000803e3d6000fd5b505050506040513d601f19601f820116820180604052508101906118c09190612fd8565b81526020018273ffffffffffffffffffffffffffffffffffffffff1663a9757c806040518163ffffffff1660e01b8152600401600060405180830381865afa158015611910573d6000803e3d6000fd5b505050506040513d6000823e3d601f19601f820116820180604052508101906119399190613111565b81526020018273ffffffffffffffffffffffffffffffffffffffff1663424ce26a6040518163ffffffff1660e01b8152600401600060405180830381865afa158015611989573d6000803e3d6000fd5b505050506040513d6000823e3d601f19601f820116820180604052508101906119b291906130c8565b81526020018273ffffffffffffffffffffffffffffffffffffffff1663977dd4d2886040518263ffffffff1660e01b81526004016119f09190611d7d565b602060405180830381865afa158015611a0d573d6000803e3d6000fd5b505050506040513d601f19601f82011682018060405250810190611a3191906132db565b1515815250838381518110611a4957611a48613280565b5b6020026020010181905250508080611a6090613337565b915050611694565b5080915050919050565b60016009600083815260200190815260200160002060006101000a81548160ff021916908315150217905550600481908060018154018082558091505060019003906000526020600020016000909190919091505550565b6001600a600083815260200190815260200160002060006101000a81548160ff021916908315150217905550600781908060018154018082558091505060019003906000526020600020016000909190919091505550565b6000600b60003373ffffffffffffffffffffffffffffffffffffffff1673ffffffffffffffffffffffffffffffffffffffff16815260200190815260200160002060009054906101000a900460ff16905090565b600e60003373ffffffffffffffffffffffffffffffffffffffff1673ffffffffffffffffffffffffffffffffffffffff16815260200190815260200160002060009054906101000a900473ffffffffffffffffffffffffffffffffffffffff1673ffffffffffffffffffffffffffffffffffffffff1663b34e97e86040518163ffffffff1660e01b8152600401600060405180830381600087803b158015611c1d57600080fd5b505af1158015611c31573d6000803e3d6000fd5b50505050565b600160009054906101000a900473ffffffffffffffffffffffffffffffffffffffff1681565b6117678061338083390190565b610b8a80614ae783390190565b6040518060c0016040528060608152602001600073ffffffffffffffffffffffffffffffffffffffff1681526020016000815260200160608152602001606081526020016000151581525090565b6000604051905090565b600080fd5b600080fd5b6000819050919050565b611cec81611cd9565b8114611cf757600080fd5b50565b600081359050611d0981611ce3565b92915050565b600060208284031215611d2557611d24611ccf565b5b6000611d3384828501611cfa565b91505092915050565b600073ffffffffffffffffffffffffffffffffffffffff82169050919050565b6000611d6782611d3c565b9050919050565b611d7781611d5c565b82525050565b6000602082019050611d926000830184611d6e565b92915050565b60008115159050919050565b611dad81611d98565b82525050565b6000602082019050611dc86000830184611da4565b92915050565b600080fd5b600080fd5b6000601f19601f8301169050919050565b7f4e487b7100000000000000000000000000000000000000000000000000000000600052604160045260246000fd5b611e2182611dd8565b810181811067ffffffffffffffff82111715611e4057611e3f611de9565b5b80604052505050565b6000611e53611cc5565b9050611e5f8282611e18565b919050565b600067ffffffffffffffff821115611e7f57611e7e611de9565b5b611e8882611dd8565b9050602081019050919050565b82818337600083830152505050565b6000611eb7611eb284611e64565b611e49565b905082815260208101848484011115611ed357611ed2611dd3565b5b611ede848285611e95565b509392505050565b600082601f830112611efb57611efa611dce565b5b8135611f0b848260208601611ea4565b91505092915050565b600060208284031215611f2a57611f29611ccf565b5b600082013567ffffffffffffffff811115611f4857611f47611cd4565b5b611f5484828501611ee6565b91505092915050565b600081519050919050565b600082825260208201905092915050565b60005b83811015611f97578082015181840152602081019050611f7c565b60008484015250505050565b6000611fae82611f5d565b611fb88185611f68565b9350611fc8818560208601611f79565b611fd181611dd8565b840191505092915050565b600081519050919050565b600082825260208201905092915050565b6000819050602082019050919050565b600082825260208201905092915050565b600061202482611f5d565b61202e8185612008565b935061203e818560208601611f79565b61204781611dd8565b840191505092915050565b600061205e8383612019565b905092915050565b6000602082019050919050565b600061207e82611fdc565b6120888185611fe7565b93508360208202850161209a85611ff8565b8060005b858110156120d657848403895281516120b78582612052565b94506120c283612066565b925060208a0199505060018101905061209e565b50829750879550505050505092915050565b600060e0820190508181036000830152612102818a611fa3565b905081810360208301526121168189611fa3565b9050818103604083015261212a8188612073565b90506121396060830187611d6e565b6121466080830186611d6e565b81810360a08301526121588185611fa3565b905081810360c083015261216c8184611fa3565b905098975050505050505050565b6000806040838503121561219157612190611ccf565b5b600083013567ffffffffffffffff8111156121af576121ae611cd4565b5b6121bb85828601611ee6565b92505060206121cc85828601611cfa565b9150509250929050565b6121df81611cd9565b82525050565b600081519050919050565b600082825260208201905092915050565b6000819050602082019050919050565b61221a81611d5c565b82525050565b600061222c8383612211565b60208301905092915050565b6000602082019050919050565b6000612250826121e5565b61225a81856121f0565b935061226583612201565b8060005b8381101561229657815161227d8882612220565b975061228883612238565b925050600181019050612269565b5085935050505092915050565b600060a08201905081810360008301526122bd8188611fa3565b90506122cc6020830187611d6e565b6122d960408301866121d6565b81810360608301526122eb8185612245565b905081810360808301526122ff8184612073565b90509695505050505050565b600081519050919050565b600082825260208201905092915050565b6000819050602082019050919050565b61234081611cd9565b82525050565b60006123528383612337565b60208301905092915050565b6000602082019050919050565b60006123768261230b565b6123808185612316565b935061238b83612327565b8060005b838110156123bc5781516123a38882612346565b97506123ae8361235e565b92505060018101905061238f565b5085935050505092915050565b600060c08201905081810360008301526123e38189611fa3565b90506123f26020830188611d6e565b8181036040830152612404818761236b565b90508181036060830152612418818661236b565b9050818103608083015261242c8185612245565b905081810360a08301526124408184612245565b9050979650505050505050565b600060208201905061246260008301846121d6565b92915050565b600067ffffffffffffffff82111561248357612482611de9565b5b602082029050602081019050919050565b600080fd5b60006124ac6124a784612468565b611e49565b905080838252602082019050602084028301858111156124cf576124ce612494565b5b835b8181101561251657803567ffffffffffffffff8111156124f4576124f3611dce565b5b8086016125018982611ee6565b855260208501945050506020810190506124d1565b5050509392505050565b600082601f83011261253557612534611dce565b5b8135612545848260208601612499565b91505092915050565b61255781611d5c565b811461256257600080fd5b50565b6000813590506125748161254e565b92915050565b600080600080600080600060e0888a03121561259957612598611ccf565b5b600088013567ffffffffffffffff8111156125b7576125b6611cd4565b5b6125c38a828b01611ee6565b975050602088013567ffffffffffffffff8111156125e4576125e3611cd4565b5b6125f08a828b01611ee6565b965050604088013567ffffffffffffffff81111561261157612610611cd4565b5b61261d8a828b01612520565b955050606061262e8a828b01612565565b945050608061263f8a828b01612565565b93505060a088013567ffffffffffffffff8111156126605761265f611cd4565b5b61266c8a828b01611ee6565b92505060c088013567ffffffffffffffff81111561268d5761268c611cd4565b5b6126998a828b01611ee6565b91505092959891949750929550565b600060208201905081810360008301526126c28184611fa3565b905092915050565b6000602082840312156126e0576126df611ccf565b5b60006126ee84828501612565565b91505092915050565b600060808201905081810360008301526127118187611fa3565b90506127206020830186611d6e565b61272d60408301856121d6565b818103606083015261273f8184612073565b905095945050505050565b600081519050919050565b600082825260208201905092915050565b6000819050602082019050919050565b600082825260208201905092915050565b600061279282611fdc565b61279c8185612776565b9350836020820285016127ae85611ff8565b8060005b858110156127ea57848403895281516127cb8582612052565b94506127d683612066565b925060208a019950506001810190506127b2565b50829750879550505050505092915050565b600082825260208201905092915050565b6000612818826121e5565b61282281856127fc565b935061282d83612201565b8060005b8381101561285e5781516128458882612220565b975061285083612238565b925050600181019050612831565b5085935050505092915050565b61287481611d98565b82525050565b600060c08301600083015184820360008601526128978282612019565b91505060208301516128ac6020860182612211565b5060408301516128bf6040860182612337565b50606083015184820360608601526128d78282612787565b915050608083015184820360808601526128f1828261280d565b91505060a083015161290660a086018261286b565b508091505092915050565b600061291d838361287a565b905092915050565b6000602082019050919050565b600061293d8261274a565b6129478185612755565b93508360208202850161295985612766565b8060005b8581101561299557848403895281516129768582612911565b945061298183612925565b925060208a0199505060018101905061295d565b50829750879550505050505092915050565b600060208201905081810360008301526129c18184612932565b905092915050565b60006129dc6129d784611e64565b611e49565b9050828152602081018484840111156129f8576129f7611dd3565b5b612a03848285611f79565b509392505050565b600082601f830112612a2057612a1f611dce565b5b8151612a308482602086016129c9565b91505092915050565b6000612a4c612a4784612468565b611e49565b90508083825260208201905060208402830185811115612a6f57612a6e612494565b5b835b81811015612ab657805167ffffffffffffffff811115612a9457612a93611dce565b5b808601612aa18982612a0b565b85526020850194505050602081019050612a71565b5050509392505050565b600082601f830112612ad557612ad4611dce565b5b8151612ae5848260208601612a39565b91505092915050565b600081519050612afd8161254e565b92915050565b600080600080600080600060e0888a031215612b2257612b21611ccf565b5b600088015167ffffffffffffffff811115612b4057612b3f611cd4565b5b612b4c8a828b01612a0b565b975050602088015167ffffffffffffffff811115612b6d57612b6c611cd4565b5b612b798a828b01612a0b565b965050604088015167ffffffffffffffff811115612b9a57612b99611cd4565b5b612ba68a828b01612ac0565b9550506060612bb78a828b01612aee565b9450506080612bc88a828b01612aee565b93505060a088015167ffffffffffffffff811115612be957612be8611cd4565b5b612bf58a828b01612a0b565b92505060c088015167ffffffffffffffff811115612c1657612c15611cd4565b5b612c228a828b01612a0b565b91505092959891949750929550565b60006060820190508181036000830152612c4b8186611fa3565b9050612c5a60208301856121d6565b612c676040830184611d6e565b949350505050565b7f4e487b7100000000000000000000000000000000000000000000000000000000600052602260045260246000fd5b60006002820490506001821680612cb657607f821691505b602082108103612cc957612cc8612c6f565b5b50919050565b60008190508160005260206000209050919050565b60006020601f8301049050919050565b600082821b905092915050565b600060088302612d317fffffffffffffffffffffffffffffffffffffffffffffffffffffffffffffffff82612cf4565b612d3b8683612cf4565b95508019841693508086168417925050509392505050565b6000819050919050565b6000612d78612d73612d6e84611cd9565b612d53565b611cd9565b9050919050565b6000819050919050565b612d9283612d5d565b612da6612d9e82612d7f565b848454612d01565b825550505050565b600090565b612dbb612dae565b612dc6818484612d89565b505050565b5b81811015612dea57612ddf600082612db3565b600181019050612dcc565b5050565b601f821115612e2f57612e0081612ccf565b612e0984612ce4565b81016020851015612e18578190505b612e2c612e2485612ce4565b830182612dcb565b50505b505050565b600082821c905092915050565b6000612e5260001984600802612e34565b1980831691505092915050565b6000612e6b8383612e41565b9150826002028217905092915050565b612e8482611f5d565b67ffffffffffffffff811115612e9d57612e9c611de9565b5b612ea78254612c9e565b612eb2828285612dee565b600060209050601f831160018114612ee55760008415612ed3578287015190505b612edd8582612e5f565b865550612f45565b601f198416612ef386612ccf565b60005b82811015612f1b57848901518255600182019150602085019450602081019050612ef6565b86831015612f385784890151612f34601f891682612e41565b8355505b6001600288020188555050505b505050505050565b600060208284031215612f6357612f62611ccf565b5b600082015167ffffffffffffffff811115612f8157612f80611cd4565b5b612f8d84828501612a0b565b91505092915050565b600060208284031215612fac57612fab611ccf565b5b6000612fba84828501612aee565b91505092915050565b600081519050612fd281611ce3565b92915050565b600060208284031215612fee57612fed611ccf565b5b6000612ffc84828501612fc3565b91505092915050565b600067ffffffffffffffff8211156130205761301f611de9565b5b602082029050602081019050919050565b600061304461303f84613005565b611e49565b9050808382526020820190506020840283018581111561306757613066612494565b5b835b81811015613090578061307c8882612aee565b845260208401935050602081019050613069565b5050509392505050565b600082601f8301126130af576130ae611dce565b5b81516130bf848260208601613031565b91505092915050565b6000602082840312156130de576130dd611ccf565b5b600082015167ffffffffffffffff8111156130fc576130fb611cd4565b5b6131088482850161309a565b91505092915050565b60006020828403121561312757613126611ccf565b5b600082015167ffffffffffffffff81111561314557613144611cd4565b5b61315184828501612ac0565b91505092915050565b600061317561317061316b84611d3c565b612d53565b611d3c565b9050919050565b60006131878261315a565b9050919050565b60006131998261317c565b9050919050565b6131a98161318e565b82525050565b60006131ba8261317c565b9050919050565b6131ca816131af565b82525050565b60006101208201905081810360008301526131eb818c611fa3565b905081810360208301526131ff818b611fa3565b90508181036040830152613213818a612073565b90506132226060830189611d6e565b61322f6080830188611d6e565b81810360a08301526132418187611fa3565b905081810360c08301526132558186611fa3565b905061326460e08301856131a0565b6132726101008301846131c1565b9a9950505050505050505050565b7f4e487b7100000000000000000000000000000000000000000000000000000000600052603260045260246000fd5b6132b881611d98565b81146132c357600080fd5b50565b6000815190506132d5816132af565b92915050565b6000602082840312156132f1576132f0611ccf565b5b60006132ff848285016132c6565b91505092915050565b7f4e487b7100000000000000000000000000000000000000000000000000000000600052601160045260246000fd5b600061334282611cd9565b91507fffffffffffffffffffffffffffffffffffffffffffffffffffffffffffffffff820361337457613373613308565b5b60018201905091905056fe60806040526000600360006101000a81548160ff02191690831515021790555034801561002b57600080fd5b5061172c8061003b6000396000f3fe608060405234801561001057600080fd5b506004361061012c5760003560e01c806391df2ff0116100ad578063b34e97e811610071578063b34e97e814610327578063b7bfcbba14610331578063d81aa8c414610361578063eaa9f0321461037d578063ff76a739146103995761012c565b806391df2ff01461026f578063977dd4d21461029f578063a2296af6146102cf578063a9757c80146102ed578063adecd5e61461030b5761012c565b806325858e89116100f457806325858e89146101c55780633aaa5920146101e3578063424ce26a14610203578063629c52a91461022157806368a7025f1461023f5761012c565b8063017349101461013157806306fdde031461014d57806308febb381461016b57806317d7de7c146101895780631b141e75146101a7575b600080fd5b61014b60048036038101906101469190610ece565b6103b7565b005b610155610414565b6040516101629190610fbc565b60405180910390f35b6101736104a2565b6040516101809190610ff9565b60405180910390f35b6101916104b5565b60405161019e9190610fbc565b60405180910390f35b6101af610547565b6040516101bc91906110d2565b60405180910390f35b6101cd6105d5565b6040516101da9190611103565b60405180910390f35b6101eb6105fb565b6040516101fa9392919061112d565b60405180910390f35b61020b6106bf565b60405161021891906110d2565b60405180910390f35b61022961074d565b604051610236919061116b565b60405180910390f35b61025960048036038101906102549190611186565b610753565b6040516102669190611103565b60405180910390f35b61028960048036038101906102849190611186565b610792565b6040516102969190611103565b60405180910390f35b6102b960048036038101906102b491906111b3565b6107d1565b6040516102c69190610ff9565b60405180910390f35b6102d7610827565b6040516102e4919061116b565b60405180910390f35b6102f5610831565b60405161030291906112ec565b60405180910390f35b610325600480360381019061032091906111b3565b61090a565b005b61032f610a11565b005b61034b60048036038101906103469190611186565b610a2e565b6040516103589190610fbc565b60405180910390f35b61037b6004803603810190610376919061130e565b610ada565b005b610397600480360381019061039291906111b3565b610b12565b005b6103a1610cb6565b6040516103ae9190611103565b60405180910390f35b82600090816103c69190611563565b5080600160006101000a81548173ffffffffffffffffffffffffffffffffffffffff021916908373ffffffffffffffffffffffffffffffffffffffff16021790555081600281905550505050565b6000805461042190611386565b80601f016020809104026020016040519081016040528092919081815260200182805461044d90611386565b801561049a5780601f1061046f5761010080835404028352916020019161049a565b820191906000526020600020905b81548152906001019060200180831161047d57829003601f168201915b505050505081565b600360009054906101000a900460ff1681565b6060600080546104c490611386565b80601f01602080910402602001604051908101604052809291908181526020018280546104f090611386565b801561053d5780601f106105125761010080835404028352916020019161053d565b820191906000526020600020905b81548152906001019060200180831161052057829003601f168201915b5050505050905090565b606060068054806020026020016040519081016040528092919081815260200182805480156105cb57602002820191906000526020600020905b8160009054906101000a900473ffffffffffffffffffffffffffffffffffffffff1673ffffffffffffffffffffffffffffffffffffffff1681526020019060010190808311610581575b5050505050905090565b600160009054906101000a900473ffffffffffffffffffffffffffffffffffffffff1681565b60606000806000600160009054906101000a900473ffffffffffffffffffffffffffffffffffffffff1660025482805461063490611386565b80601f016020809104026020016040519081016040528092919081815260200182805461066090611386565b80156106ad5780601f10610682576101008083540402835291602001916106ad565b820191906000526020600020905b81548152906001019060200180831161069057829003601f168201915b50505050509250925092509250909192565b6060600480548060200260200160405190810160405280929190818152602001828054801561074357602002820191906000526020600020905b8160009054906101000a900473ffffffffffffffffffffffffffffffffffffffff1673ffffffffffffffffffffffffffffffffffffffff16815260200190600101908083116106f9575b5050505050905090565b60025481565b6006818154811061076357600080fd5b906000526020600020016000915054906101000a900473ffffffffffffffffffffffffffffffffffffffff1681565b600481815481106107a257600080fd5b906000526020600020016000915054906101000a900473ffffffffffffffffffffffffffffffffffffffff1681565b6000600860008373ffffffffffffffffffffffffffffffffffffffff1673ffffffffffffffffffffffffffffffffffffffff16815260200190815260200160002060009054906101000a900460ff169050919050565b6000600254905090565b60606005805480602002602001604051908101604052809291908181526020016000905b8282101561090157838290600052602060002001805461087490611386565b80601f01602080910402602001604051908101604052809291908181526020018280546108a090611386565b80156108ed5780601f106108c2576101008083540402835291602001916108ed565b820191906000526020600020905b8154815290600101906020018083116108d057829003601f168201915b505050505081526020019060010190610855565b50505050905090565b6001600860008373ffffffffffffffffffffffffffffffffffffffff1673ffffffffffffffffffffffffffffffffffffffff16815260200190815260200160002060006101000a81548160ff021916908315150217905550600680549050600760008373ffffffffffffffffffffffffffffffffffffffff1673ffffffffffffffffffffffffffffffffffffffff168152602001908152602001600020819055506006819080600181540180825580915050600190039060005260206000200160009091909190916101000a81548173ffffffffffffffffffffffffffffffffffffffff021916908373ffffffffffffffffffffffffffffffffffffffff16021790555050565b6001600360006101000a81548160ff021916908315150217905550565b60058181548110610a3e57600080fd5b906000526020600020016000915090508054610a5990611386565b80601f0160208091040260200160405190810160405280929190818152602001828054610a8590611386565b8015610ad25780601f10610aa757610100808354040283529160200191610ad2565b820191906000526020600020905b815481529060010190602001808311610ab557829003601f168201915b505050505081565b600581908060018154018082558091505060019003906000526020600020016000909190919091509081610b0e9190611563565b5050565b6000600860008373ffffffffffffffffffffffffffffffffffffffff1673ffffffffffffffffffffffffffffffffffffffff16815260200190815260200160002060006101000a81548160ff0219169083151502179055506000600760008373ffffffffffffffffffffffffffffffffffffffff1673ffffffffffffffffffffffffffffffffffffffff1681526020019081526020016000205490506006805490508110610bbf57600080fd5b60066001600680549050610bd39190611664565b81548110610be457610be3611698565b5b9060005260206000200160009054906101000a900473ffffffffffffffffffffffffffffffffffffffff1660068281548110610c2357610c22611698565b5b9060005260206000200160006101000a81548173ffffffffffffffffffffffffffffffffffffffff021916908373ffffffffffffffffffffffffffffffffffffffff1602179055506006805480610c7d57610c7c6116c7565b5b6001900381819060005260206000200160006101000a81549073ffffffffffffffffffffffffffffffffffffffff021916905590555050565b6000600160009054906101000a900473ffffffffffffffffffffffffffffffffffffffff16905090565b6000604051905090565b600080fd5b600080fd5b600080fd5b600080fd5b6000601f19601f8301169050919050565b7f4e487b7100000000000000000000000000000000000000000000000000000000600052604160045260246000fd5b610d4782610cfe565b810181811067ffffffffffffffff82111715610d6657610d65610d0f565b5b80604052505050565b6000610d79610ce0565b9050610d858282610d3e565b919050565b600067ffffffffffffffff821115610da557610da4610d0f565b5b610dae82610cfe565b9050602081019050919050565b82818337600083830152505050565b6000610ddd610dd884610d8a565b610d6f565b905082815260208101848484011115610df957610df8610cf9565b5b610e04848285610dbb565b509392505050565b600082601f830112610e2157610e20610cf4565b5b8135610e31848260208601610dca565b91505092915050565b6000819050919050565b610e4d81610e3a565b8114610e5857600080fd5b50565b600081359050610e6a81610e44565b92915050565b600073ffffffffffffffffffffffffffffffffffffffff82169050919050565b6000610e9b82610e70565b9050919050565b610eab81610e90565b8114610eb657600080fd5b50565b600081359050610ec881610ea2565b92915050565b600080600060608486031215610ee757610ee6610cea565b5b600084013567ffffffffffffffff811115610f0557610f04610cef565b5b610f1186828701610e0c565b9350506020610f2286828701610e5b565b9250506040610f3386828701610eb9565b9150509250925092565b600081519050919050565b600082825260208201905092915050565b60005b83811015610f77578082015181840152602081019050610f5c565b60008484015250505050565b6000610f8e82610f3d565b610f988185610f48565b9350610fa8818560208601610f59565b610fb181610cfe565b840191505092915050565b60006020820190508181036000830152610fd68184610f83565b905092915050565b60008115159050919050565b610ff381610fde565b82525050565b600060208201905061100e6000830184610fea565b92915050565b600081519050919050565b600082825260208201905092915050565b6000819050602082019050919050565b61104981610e90565b82525050565b600061105b8383611040565b60208301905092915050565b6000602082019050919050565b600061107f82611014565b611089818561101f565b935061109483611030565b8060005b838110156110c55781516110ac888261104f565b97506110b783611067565b925050600181019050611098565b5085935050505092915050565b600060208201905081810360008301526110ec8184611074565b905092915050565b6110fd81610e90565b82525050565b600060208201905061111860008301846110f4565b92915050565b61112781610e3a565b82525050565b600060608201905081810360008301526111478186610f83565b905061115660208301856110f4565b611163604083018461111e565b949350505050565b6000602082019050611180600083018461111e565b92915050565b60006020828403121561119c5761119b610cea565b5b60006111aa84828501610e5b565b91505092915050565b6000602082840312156111c9576111c8610cea565b5b60006111d784828501610eb9565b91505092915050565b600081519050919050565b600082825260208201905092915050565b6000819050602082019050919050565b600082825260208201905092915050565b600061122882610f3d565b611232818561120c565b9350611242818560208601610f59565b61124b81610cfe565b840191505092915050565b6000611262838361121d565b905092915050565b6000602082019050919050565b6000611282826111e0565b61128c81856111eb565b93508360208202850161129e856111fc565b8060005b858110156112da57848403895281516112bb8582611256565b94506112c68361126a565b925060208a019950506001810190506112a2565b50829750879550505050505092915050565b600060208201905081810360008301526113068184611277565b905092915050565b60006020828403121561132457611323610cea565b5b600082013567ffffffffffffffff81111561134257611341610cef565b5b61134e84828501610e0c565b91505092915050565b7f4e487b7100000000000000000000000000000000000000000000000000000000600052602260045260246000fd5b6000600282049050600182168061139e57607f821691505b6020821081036113b1576113b0611357565b5b50919050565b60008190508160005260206000209050919050565b60006020601f8301049050919050565b600082821b905092915050565b6000600883026114197fffffffffffffffffffffffffffffffffffffffffffffffffffffffffffffffff826113dc565b61142386836113dc565b95508019841693508086168417925050509392505050565b6000819050919050565b600061146061145b61145684610e3a565b61143b565b610e3a565b9050919050565b6000819050919050565b61147a83611445565b61148e61148682611467565b8484546113e9565b825550505050565b600090565b6114a3611496565b6114ae818484611471565b505050565b5b818110156114d2576114c760008261149b565b6001810190506114b4565b5050565b601f821115611517576114e8816113b7565b6114f1846113cc565b81016020851015611500578190505b61151461150c856113cc565b8301826114b3565b50505b505050565b600082821c905092915050565b600061153a6000198460080261151c565b1980831691505092915050565b60006115538383611529565b9150826002028217905092915050565b61156c82610f3d565b67ffffffffffffffff81111561158557611584610d0f565b5b61158f8254611386565b61159a8282856114d6565b600060209050601f8311600181146115cd57600084156115bb578287015190505b6115c58582611547565b86555061162d565b601f1984166115db866113b7565b60005b82811015611603578489015182556001820191506020850194506020810190506115de565b86831015611620578489015161161c601f891682611529565b8355505b6001600288020188555050505b505050505050565b7f4e487b7100000000000000000000000000000000000000000000000000000000600052601160045260246000fd5b600061166f82610e3a565b915061167a83610e3a565b925082820390508181111561169257611691611635565b5b92915050565b7f4e487b7100000000000000000000000000000000000000000000000000000000600052603260045260246000fd5b7f4e487b7100000000000000000000000000000000000000000000000000000000600052603160045260246000fdfea2646970667358221220cbcd641667f4d700f562ee089b8f9827799949f5028ba586903a3a7634a3f34264736f6c63430008110033608060405234801561001057600080fd5b50610b6a806100206000396000f3fe608060405234801561001057600080fd5b506004361061007d5760003560e01c8063ab63d7f21161005b578063ab63d7f2146100dc578063b34e97e8146100fa578063c30d742e14610104578063d81aa8c4146101205761007d565b806317d7de7c1461008257806338cc4831146100a05780638eff3c29146100be575b600080fd5b61008a61013c565b604051610097919061041d565b60405180910390f35b6100a86101ce565b6040516100b59190610480565b60405180910390f35b6100c66101f8565b6040516100d391906105a7565b60405180910390f35b6100e46102d1565b6040516100f191906105e2565b60405180910390f35b6101026102db565b005b61011e6004803603810190610119919061079e565b6102f8565b005b61013a6004803603810190610135919061080d565b610355565b005b60606000805461014b90610885565b80601f016020809104026020016040519081016040528092919081815260200182805461017790610885565b80156101c45780601f10610199576101008083540402835291602001916101c4565b820191906000526020600020905b8154815290600101906020018083116101a757829003601f168201915b5050505050905090565b6000600160009054906101000a900473ffffffffffffffffffffffffffffffffffffffff16905090565b60606003805480602002602001604051908101604052809291908181526020016000905b828210156102c857838290600052602060002001805461023b90610885565b80601f016020809104026020016040519081016040528092919081815260200182805461026790610885565b80156102b45780601f10610289576101008083540402835291602001916102b4565b820191906000526020600020905b81548152906001019060200180831161029757829003601f168201915b50505050508152602001906001019061021c565b50505050905090565b6000600254905090565b6001600460006101000a81548160ff021916908315150217905550565b82600090816103079190610a62565b5080600160006101000a81548173ffffffffffffffffffffffffffffffffffffffff021916908373ffffffffffffffffffffffffffffffffffffffff16021790555081600281905550505050565b6003819080600181540180825580915050600190039060005260206000200160009091909190915090816103899190610a62565b5050565b600081519050919050565b600082825260208201905092915050565b60005b838110156103c75780820151818401526020810190506103ac565b60008484015250505050565b6000601f19601f8301169050919050565b60006103ef8261038d565b6103f98185610398565b93506104098185602086016103a9565b610412816103d3565b840191505092915050565b6000602082019050818103600083015261043781846103e4565b905092915050565b600073ffffffffffffffffffffffffffffffffffffffff82169050919050565b600061046a8261043f565b9050919050565b61047a8161045f565b82525050565b60006020820190506104956000830184610471565b92915050565b600081519050919050565b600082825260208201905092915050565b6000819050602082019050919050565b600082825260208201905092915050565b60006104e38261038d565b6104ed81856104c7565b93506104fd8185602086016103a9565b610506816103d3565b840191505092915050565b600061051d83836104d8565b905092915050565b6000602082019050919050565b600061053d8261049b565b61054781856104a6565b935083602082028501610559856104b7565b8060005b8581101561059557848403895281516105768582610511565b945061058183610525565b925060208a0199505060018101905061055d565b50829750879550505050505092915050565b600060208201905081810360008301526105c18184610532565b905092915050565b6000819050919050565b6105dc816105c9565b82525050565b60006020820190506105f760008301846105d3565b92915050565b6000604051905090565b600080fd5b600080fd5b600080fd5b600080fd5b7f4e487b7100000000000000000000000000000000000000000000000000000000600052604160045260246000fd5b610653826103d3565b810181811067ffffffffffffffff821117156106725761067161061b565b5b80604052505050565b60006106856105fd565b9050610691828261064a565b919050565b600067ffffffffffffffff8211156106b1576106b061061b565b5b6106ba826103d3565b9050602081019050919050565b82818337600083830152505050565b60006106e96106e484610696565b61067b565b90508281526020810184848401111561070557610704610616565b5b6107108482856106c7565b509392505050565b600082601f83011261072d5761072c610611565b5b813561073d8482602086016106d6565b91505092915050565b61074f816105c9565b811461075a57600080fd5b50565b60008135905061076c81610746565b92915050565b61077b8161045f565b811461078657600080fd5b50565b60008135905061079881610772565b92915050565b6000806000606084860312156107b7576107b6610607565b5b600084013567ffffffffffffffff8111156107d5576107d461060c565b5b6107e186828701610718565b93505060206107f28682870161075d565b925050604061080386828701610789565b9150509250925092565b60006020828403121561082357610822610607565b5b600082013567ffffffffffffffff8111156108415761084061060c565b5b61084d84828501610718565b91505092915050565b7f4e487b7100000000000000000000000000000000000000000000000000000000600052602260045260246000fd5b6000600282049050600182168061089d57607f821691505b6020821081036108b0576108af610856565b5b50919050565b60008190508160005260206000209050919050565b60006020601f8301049050919050565b600082821b905092915050565b6000600883026109187fffffffffffffffffffffffffffffffffffffffffffffffffffffffffffffffff826108db565b61092286836108db565b95508019841693508086168417925050509392505050565b6000819050919050565b600061095f61095a610955846105c9565b61093a565b6105c9565b9050919050565b6000819050919050565b61097983610944565b61098d61098582610966565b8484546108e8565b825550505050565b600090565b6109a2610995565b6109ad818484610970565b505050565b5b818110156109d1576109c660008261099a565b6001810190506109b3565b5050565b601f821115610a16576109e7816108b6565b6109f0846108cb565b810160208510156109ff578190505b610a13610a0b856108cb565b8301826109b2565b50505b505050565b600082821c905092915050565b6000610a3960001984600802610a1b565b1980831691505092915050565b6000610a528383610a28565b9150826002028217905092915050565b610a6b8261038d565b67ffffffffffffffff811115610a8457610a8361061b565b5b610a8e8254610885565b610a998282856109d5565b600060209050601f831160018114610acc5760008415610aba578287015190505b610ac48582610a46565b865550610b2c565b601f198416610ada866108b6565b60005b82811015610b0257848901518255600182019150602085019450602081019050610add565b86831015610b1f5784890151610b1b601f891682610a28565b8355505b6001600288020188555050505b50505050505056fea2646970667358221220c8e0e188550e9b9d76ae526c99cd5e5c1b82849ab25dca4b229377ce5951914364736f6c63430008110033a26469706673582212207df8d2b2500cf22dce8b6361826adbbb175eaa39adadf4df6bf907941825c7ec64736f6c63430008110033608060405234801561001057600080fd5b50612411806100206000396000f3fe608060405234801561001057600080fd5b50600436106100365760003560e01c806311dd88451461003b578063696cbf3014610071575b600080fd5b610055600480360381019061005091906107cb565b61008d565b60405161006897969594939291906109e0565b60405180910390f35b61008b60048036038101906100869190610c00565b610416565b005b6060806060600080606080600080896040516100a99190610d92565b908152602001604051809103902060009054906101000a900473ffffffffffffffffffffffffffffffffffffffff1690508073ffffffffffffffffffffffffffffffffffffffff1663ab63d7f26040518163ffffffff1660e01b8152600401600060405180830381865afa158015610125573d6000803e3d6000fd5b505050506040513d6000823e3d601f19601f8201168201806040525081019061014e9190610e19565b8173ffffffffffffffffffffffffffffffffffffffff166317a535756040518163ffffffff1660e01b8152600401600060405180830381865afa158015610199573d6000803e3d6000fd5b505050506040513d6000823e3d601f19601f820116820180604052508101906101c29190610e19565b8273ffffffffffffffffffffffffffffffffffffffff16633c4380596040518163ffffffff1660e01b8152600401600060405180830381865afa15801561020d573d6000803e3d6000fd5b505050506040513d6000823e3d601f19601f820116820180604052508101906102369190610f17565b8373ffffffffffffffffffffffffffffffffffffffff16633f8b0a1d6040518163ffffffff1660e01b8152600401602060405180830381865afa158015610281573d6000803e3d6000fd5b505050506040513d601f19601f820116820180604052508101906102a59190610f75565b8473ffffffffffffffffffffffffffffffffffffffff16632efa52fb6040518163ffffffff1660e01b8152600401602060405180830381865afa1580156102f0573d6000803e3d6000fd5b505050506040513d601f19601f820116820180604052508101906103149190610f75565b8573ffffffffffffffffffffffffffffffffffffffff1663870be7dd6040518163ffffffff1660e01b8152600401600060405180830381865afa15801561035f573d6000803e3d6000fd5b505050506040513d6000823e3d601f19601f820116820180604052508101906103889190610e19565b8673ffffffffffffffffffffffffffffffffffffffff16632796c8f06040518163ffffffff1660e01b8152600401600060405180830381865afa1580156103d3573d6000803e3d6000fd5b505050506040513d6000823e3d601f19601f820116820180604052508101906103fc9190610e19565b975097509750975097509750975050919395979092949650565b600060405161042490610664565b604051809103906000f080158015610440573d6000803e3d6000fd5b5090508073ffffffffffffffffffffffffffffffffffffffff16639babbcf58b8b8b8b8b8b8b6040518863ffffffff1660e01b815260040161048897969594939291906109e0565b600060405180830381600087803b1580156104a257600080fd5b505af11580156104b6573d6000803e3d6000fd5b505050508060008b6040516104cb9190610d92565b908152602001604051809103902060006101000a81548173ffffffffffffffffffffffffffffffffffffffff021916908373ffffffffffffffffffffffffffffffffffffffff1602179055508273ffffffffffffffffffffffffffffffffffffffff1663d81aa8c48b6040518263ffffffff1660e01b81526004016105509190610fa2565b600060405180830381600087803b15801561056a57600080fd5b505af115801561057e573d6000803e3d6000fd5b505050508273ffffffffffffffffffffffffffffffffffffffff1663eaa9f032876040518263ffffffff1660e01b81526004016105bb9190610fc4565b600060405180830381600087803b1580156105d557600080fd5b505af11580156105e9573d6000803e3d6000fd5b505050508173ffffffffffffffffffffffffffffffffffffffff1663d81aa8c48b6040518263ffffffff1660e01b81526004016106269190610fa2565b600060405180830381600087803b15801561064057600080fd5b505af1158015610654573d6000803e3d6000fd5b5050505050505050505050505050565b6113fc80610fe083390190565b6000604051905090565b600080fd5b600080fd5b600080fd5b600080fd5b6000601f19601f8301169050919050565b7f4e487b7100000000000000000000000000000000000000000000000000000000600052604160045260246000fd5b6106d88261068f565b810181811067ffffffffffffffff821117156106f7576106f66106a0565b5b80604052505050565b600061070a610671565b905061071682826106cf565b919050565b600067ffffffffffffffff821115610736576107356106a0565b5b61073f8261068f565b9050602081019050919050565b82818337600083830152505050565b600061076e6107698461071b565b610700565b90508281526020810184848401111561078a5761078961068a565b5b61079584828561074c565b509392505050565b600082601f8301126107b2576107b1610685565b5b81356107c284826020860161075b565b91505092915050565b6000602082840312156107e1576107e061067b565b5b600082013567ffffffffffffffff8111156107ff576107fe610680565b5b61080b8482850161079d565b91505092915050565b600081519050919050565b600082825260208201905092915050565b60005b8381101561084e578082015181840152602081019050610833565b60008484015250505050565b600061086582610814565b61086f818561081f565b935061087f818560208601610830565b6108888161068f565b840191505092915050565b600081519050919050565b600082825260208201905092915050565b6000819050602082019050919050565b600082825260208201905092915050565b60006108db82610814565b6108e581856108bf565b93506108f5818560208601610830565b6108fe8161068f565b840191505092915050565b600061091583836108d0565b905092915050565b6000602082019050919050565b600061093582610893565b61093f818561089e565b935083602082028501610951856108af565b8060005b8581101561098d578484038952815161096e8582610909565b94506109798361091d565b925060208a01995050600181019050610955565b50829750879550505050505092915050565b600073ffffffffffffffffffffffffffffffffffffffff82169050919050565b60006109ca8261099f565b9050919050565b6109da816109bf565b82525050565b600060e08201905081810360008301526109fa818a61085a565b90508181036020830152610a0e818961085a565b90508181036040830152610a22818861092a565b9050610a3160608301876109d1565b610a3e60808301866109d1565b81810360a0830152610a50818561085a565b905081810360c0830152610a64818461085a565b905098975050505050505050565b600067ffffffffffffffff821115610a8d57610a8c6106a0565b5b602082029050602081019050919050565b600080fd5b6000610ab6610ab184610a72565b610700565b90508083825260208201905060208402830185811115610ad957610ad8610a9e565b5b835b81811015610b2057803567ffffffffffffffff811115610afe57610afd610685565b5b808601610b0b898261079d565b85526020850194505050602081019050610adb565b5050509392505050565b600082601f830112610b3f57610b3e610685565b5b8135610b4f848260208601610aa3565b91505092915050565b610b61816109bf565b8114610b6c57600080fd5b50565b600081359050610b7e81610b58565b92915050565b6000610b8f826109bf565b9050919050565b610b9f81610b84565b8114610baa57600080fd5b50565b600081359050610bbc81610b96565b92915050565b6000610bcd826109bf565b9050919050565b610bdd81610bc2565b8114610be857600080fd5b50565b600081359050610bfa81610bd4565b92915050565b60008060008060008060008060006101208a8c031215610c2357610c2261067b565b5b60008a013567ffffffffffffffff811115610c4157610c40610680565b5b610c4d8c828d0161079d565b99505060208a013567ffffffffffffffff811115610c6e57610c6d610680565b5b610c7a8c828d0161079d565b98505060408a013567ffffffffffffffff811115610c9b57610c9a610680565b5b610ca78c828d01610b2a565b9750506060610cb88c828d01610b6f565b9650506080610cc98c828d01610b6f565b95505060a08a013567ffffffffffffffff811115610cea57610ce9610680565b5b610cf68c828d0161079d565b94505060c08a013567ffffffffffffffff811115610d1757610d16610680565b5b610d238c828d0161079d565b93505060e0610d348c828d01610bad565b925050610100610d468c828d01610beb565b9150509295985092959850929598565b600081905092915050565b6000610d6c82610814565b610d768185610d56565b9350610d86818560208601610830565b80840191505092915050565b6000610d9e8284610d61565b915081905092915050565b6000610dbc610db78461071b565b610700565b905082815260208101848484011115610dd857610dd761068a565b5b610de3848285610830565b509392505050565b600082601f830112610e0057610dff610685565b5b8151610e10848260208601610da9565b91505092915050565b600060208284031215610e2f57610e2e61067b565b5b600082015167ffffffffffffffff811115610e4d57610e4c610680565b5b610e5984828501610deb565b91505092915050565b6000610e75610e7084610a72565b610700565b90508083825260208201905060208402830185811115610e9857610e97610a9e565b5b835b81811015610edf57805167ffffffffffffffff811115610ebd57610ebc610685565b5b808601610eca8982610deb565b85526020850194505050602081019050610e9a565b5050509392505050565b600082601f830112610efe57610efd610685565b5b8151610f0e848260208601610e62565b91505092915050565b600060208284031215610f2d57610f2c61067b565b5b600082015167ffffffffffffffff811115610f4b57610f4a610680565b5b610f5784828501610ee9565b91505092915050565b600081519050610f6f81610b58565b92915050565b600060208284031215610f8b57610f8a61067b565b5b6000610f9984828501610f60565b91505092915050565b60006020820190508181036000830152610fbc818461085a565b905092915050565b6000602082019050610fd960008301846109d1565b9291505056fe608060405234801561001057600080fd5b506113dc806100206000396000f3fe608060405234801561001057600080fd5b50600436106100f55760003560e01c80633c81ba4f11610097578063870be7dd11610066578063870be7dd1461025657806388d8c12b146102745780639babbcf514610292578063ab63d7f2146102ae576100f5565b80633c81ba4f146101de5780633f8b0a1d146101fc578063629c52a91461021a5780637670272314610238576100f5565b80631f4591dd116100d35780631f4591dd146101665780632796c8f0146101845780632efa52fb146101a25780633c438059146101c0576100f5565b80630b6e41e5146100fa578063108681841461011857806317a5357514610148575b600080fd5b6101026102cc565b60405161010f9190610b30565b60405180910390f35b610132600480360381019061012d9190610b9c565b61035a565b60405161013f9190610b30565b60405180910390f35b610150610406565b60405161015d9190610b30565b60405180910390f35b61016e610498565b60405161017b9190610c0a565b60405180910390f35b61018c6104be565b6040516101999190610b30565b60405180910390f35b6101aa610550565b6040516101b79190610c0a565b60405180910390f35b6101c861057a565b6040516101d59190610d31565b60405180910390f35b6101e6610653565b6040516101f39190610b30565b60405180910390f35b6102046106e1565b6040516102119190610c0a565b60405180910390f35b61022261070b565b60405161022f9190610b30565b60405180910390f35b610240610799565b60405161024d9190610b30565b60405180910390f35b61025e610827565b60405161026b9190610b30565b60405180910390f35b61027c6108b9565b6040516102899190610c0a565b60405180910390f35b6102ac60048036038101906102a79190610f9a565b6108df565b005b6102b66109c1565b6040516102c39190610b30565b60405180910390f35b600580546102d9906110f7565b80601f0160208091040260200160405190810160405280929190818152602001828054610305906110f7565b80156103525780601f1061032757610100808354040283529160200191610352565b820191906000526020600020905b81548152906001019060200180831161033557829003601f168201915b505050505081565b6002818154811061036a57600080fd5b906000526020600020016000915090508054610385906110f7565b80601f01602080910402602001604051908101604052809291908181526020018280546103b1906110f7565b80156103fe5780601f106103d3576101008083540402835291602001916103fe565b820191906000526020600020905b8154815290600101906020018083116103e157829003601f168201915b505050505081565b606060018054610415906110f7565b80601f0160208091040260200160405190810160405280929190818152602001828054610441906110f7565b801561048e5780601f106104635761010080835404028352916020019161048e565b820191906000526020600020905b81548152906001019060200180831161047157829003601f168201915b5050505050905090565b600360009054906101000a900473ffffffffffffffffffffffffffffffffffffffff1681565b6060600680546104cd906110f7565b80601f01602080910402602001604051908101604052809291908181526020018280546104f9906110f7565b80156105465780601f1061051b57610100808354040283529160200191610546565b820191906000526020600020905b81548152906001019060200180831161052957829003601f168201915b5050505050905090565b6000600460009054906101000a900473ffffffffffffffffffffffffffffffffffffffff16905090565b60606002805480602002602001604051908101604052809291908181526020016000905b8282101561064a5783829060005260206000200180546105bd906110f7565b80601f01602080910402602001604051908101604052809291908181526020018280546105e9906110f7565b80156106365780601f1061060b57610100808354040283529160200191610636565b820191906000526020600020905b81548152906001019060200180831161061957829003601f168201915b50505050508152602001906001019061059e565b50505050905090565b60018054610660906110f7565b80601f016020809104026020016040519081016040528092919081815260200182805461068c906110f7565b80156106d95780601f106106ae576101008083540402835291602001916106d9565b820191906000526020600020905b8154815290600101906020018083116106bc57829003601f168201915b505050505081565b6000600360009054906101000a900473ffffffffffffffffffffffffffffffffffffffff16905090565b60008054610718906110f7565b80601f0160208091040260200160405190810160405280929190818152602001828054610744906110f7565b80156107915780601f1061076657610100808354040283529160200191610791565b820191906000526020600020905b81548152906001019060200180831161077457829003601f168201915b505050505081565b600680546107a6906110f7565b80601f01602080910402602001604051908101604052809291908181526020018280546107d2906110f7565b801561081f5780601f106107f45761010080835404028352916020019161081f565b820191906000526020600020905b81548152906001019060200180831161080257829003601f168201915b505050505081565b606060058054610836906110f7565b80601f0160208091040260200160405190810160405280929190818152602001828054610862906110f7565b80156108af5780601f10610884576101008083540402835291602001916108af565b820191906000526020600020905b81548152906001019060200180831161089257829003601f168201915b5050505050905090565b600460009054906101000a900473ffffffffffffffffffffffffffffffffffffffff1681565b86600090816108ee91906112d4565b5081600590816108fe91906112d4565b50856001908161090e91906112d4565b5084600290805190602001906109259291906109c6565b5083600360006101000a81548173ffffffffffffffffffffffffffffffffffffffff021916908373ffffffffffffffffffffffffffffffffffffffff16021790555082600460006101000a81548173ffffffffffffffffffffffffffffffffffffffff021916908373ffffffffffffffffffffffffffffffffffffffff16021790555080600690816109b791906112d4565b5050505050505050565b606090565b828054828255906000526020600020908101928215610a0e579160200282015b82811115610a0d5782518290816109fd91906112d4565b50916020019190600101906109e6565b5b509050610a1b9190610a1f565b5090565b5b80821115610a3f5760008181610a369190610a43565b50600101610a20565b5090565b508054610a4f906110f7565b6000825580601f10610a615750610a80565b601f016020900490600052602060002090810190610a7f9190610a83565b5b50565b5b80821115610a9c576000816000905550600101610a84565b5090565b600081519050919050565b600082825260208201905092915050565b60005b83811015610ada578082015181840152602081019050610abf565b60008484015250505050565b6000601f19601f8301169050919050565b6000610b0282610aa0565b610b0c8185610aab565b9350610b1c818560208601610abc565b610b2581610ae6565b840191505092915050565b60006020820190508181036000830152610b4a8184610af7565b905092915050565b6000604051905090565b600080fd5b600080fd5b6000819050919050565b610b7981610b66565b8114610b8457600080fd5b50565b600081359050610b9681610b70565b92915050565b600060208284031215610bb257610bb1610b5c565b5b6000610bc084828501610b87565b91505092915050565b600073ffffffffffffffffffffffffffffffffffffffff82169050919050565b6000610bf482610bc9565b9050919050565b610c0481610be9565b82525050565b6000602082019050610c1f6000830184610bfb565b92915050565b600081519050919050565b600082825260208201905092915050565b6000819050602082019050919050565b600082825260208201905092915050565b6000610c6d82610aa0565b610c778185610c51565b9350610c87818560208601610abc565b610c9081610ae6565b840191505092915050565b6000610ca78383610c62565b905092915050565b6000602082019050919050565b6000610cc782610c25565b610cd18185610c30565b935083602082028501610ce385610c41565b8060005b85811015610d1f5784840389528151610d008582610c9b565b9450610d0b83610caf565b925060208a01995050600181019050610ce7565b50829750879550505050505092915050565b60006020820190508181036000830152610d4b8184610cbc565b905092915050565b600080fd5b600080fd5b7f4e487b7100000000000000000000000000000000000000000000000000000000600052604160045260246000fd5b610d9582610ae6565b810181811067ffffffffffffffff82111715610db457610db3610d5d565b5b80604052505050565b6000610dc7610b52565b9050610dd38282610d8c565b919050565b600067ffffffffffffffff821115610df357610df2610d5d565b5b610dfc82610ae6565b9050602081019050919050565b82818337600083830152505050565b6000610e2b610e2684610dd8565b610dbd565b905082815260208101848484011115610e4757610e46610d58565b5b610e52848285610e09565b509392505050565b600082601f830112610e6f57610e6e610d53565b5b8135610e7f848260208601610e18565b91505092915050565b600067ffffffffffffffff821115610ea357610ea2610d5d565b5b602082029050602081019050919050565b600080fd5b6000610ecc610ec784610e88565b610dbd565b90508083825260208201905060208402830185811115610eef57610eee610eb4565b5b835b81811015610f3657803567ffffffffffffffff811115610f1457610f13610d53565b5b808601610f218982610e5a565b85526020850194505050602081019050610ef1565b5050509392505050565b600082601f830112610f5557610f54610d53565b5b8135610f65848260208601610eb9565b91505092915050565b610f7781610be9565b8114610f8257600080fd5b50565b600081359050610f9481610f6e565b92915050565b600080600080600080600060e0888a031215610fb957610fb8610b5c565b5b600088013567ffffffffffffffff811115610fd757610fd6610b61565b5b610fe38a828b01610e5a565b975050602088013567ffffffffffffffff81111561100457611003610b61565b5b6110108a828b01610e5a565b965050604088013567ffffffffffffffff81111561103157611030610b61565b5b61103d8a828b01610f40565b955050606061104e8a828b01610f85565b945050608061105f8a828b01610f85565b93505060a088013567ffffffffffffffff8111156110805761107f610b61565b5b61108c8a828b01610e5a565b92505060c088013567ffffffffffffffff8111156110ad576110ac610b61565b5b6110b98a828b01610e5a565b91505092959891949750929550565b7f4e487b7100000000000000000000000000000000000000000000000000000000600052602260045260246000fd5b6000600282049050600182168061110f57607f821691505b602082108103611122576111216110c8565b5b50919050565b60008190508160005260206000209050919050565b60006020601f8301049050919050565b600082821b905092915050565b60006008830261118a7fffffffffffffffffffffffffffffffffffffffffffffffffffffffffffffffff8261114d565b611194868361114d565b95508019841693508086168417925050509392505050565b6000819050919050565b60006111d16111cc6111c784610b66565b6111ac565b610b66565b9050919050565b6000819050919050565b6111eb836111b6565b6111ff6111f7826111d8565b84845461115a565b825550505050565b600090565b611214611207565b61121f8184846111e2565b505050565b5b818110156112435761123860008261120c565b600181019050611225565b5050565b601f8211156112885761125981611128565b6112628461113d565b81016020851015611271578190505b61128561127d8561113d565b830182611224565b50505b505050565b600082821c905092915050565b60006112ab6000198460080261128d565b1980831691505092915050565b60006112c4838361129a565b9150826002028217905092915050565b6112dd82610aa0565b67ffffffffffffffff8111156112f6576112f5610d5d565b5b61130082546110f7565b61130b828285611247565b600060209050601f83116001811461133e576000841561132c578287015190505b61133685826112b8565b86555061139e565b601f19841661134c86611128565b60005b828110156113745784890151825560018201915060208501945060208101905061134f565b86831015611391578489015161138d601f89168261129a565b8355505b6001600288020188555050505b50505050505056fea264697066735822122096c1d6bae8683e736a9c7ca761c4d325385eba8c09f8f86215231dc31c8da87a64736f6c63430008110033a2646970667358221220712b9ec752d14e94387c54705c6dd08e785d943c10813c244563d8aab7beffb764736f6c63430008110033",
  "immutableReferences": {},
  "source": "// pragma solidity >=0.7.0 <0.9.0;\r\npragma solidity ^0.8.17;\r\nimport \"./Doctors.sol\";\r\nimport \"./Patients.sol\";\r\nimport \"./Records.sol\";\r\nimport \"./Util.sol\";\r\ncontract Admin{\r\n    Util u=new Util();\r\n    address public adminAddress;\r\n    string public adminName;\r\n    bool public isAdminPresent=false;\r\n    uint[] public doctorIds;\r\n    address[] public registeredDoctors;\r\n    bool public isLoggedIn;\r\n    uint[] patientIds;\r\n    address[] patientAddress;\r\n    \r\n    mapping(uint=>bool) doctorUidPresent;\r\n    mapping(uint=>bool) patientUidPresent;\r\n    mapping(address=>bool) doctorPresent;\r\n\r\n    mapping(address=>Doctor) addressToDoctor;\r\n\r\n    mapping(address=>bool) patientPresent;\r\n\r\n    mapping(address=>Patient) addressToPatient;\r\n    struct doctorStruct{\r\n        string name;\r\n        address doctorAddress;\r\n        uint id;\r\n        string[] recordsIssued;\r\n        address[] patientsTreated;\r\n        bool appoint;\r\n    }\r\n\r\n    // mapping(string=>Record) uniqueToRecord;\r\n    // mapping(address=>string[]) doctorAddressToRecords;\r\n    // mapping(address=>string[]) patientAddressRecords;\r\n\r\n    // struct recordStruct{\r\n    //     string uniqueId;\r\n    //     string reportHash;\r\n    //     string[] medicnes;\r\n    //     address issuedBy;\r\n    //     address issuedTo;\r\n    //     string patientName;\r\n    //     string doctorName;\r\n    //     address patientAddress;\r\n    //     address doctorAddress;\r\n    // }\r\n    // struct patientStruct{\r\n    //     string name;\r\n    //     address patientAddress;\r\n    //     uint id;\r\n    //     string[] records;\r\n    // }\r\n\r\n   \r\n    \r\n    //get ALL PATIENTS\r\n    // function getAllPatients() public view returns(patientStruct[] memory){\r\n    //     patientStruct[] memory patients=new patientStruct[](patientAddress.length);\r\n    //      for(uint i=0;i<patientAddress.length;i++){\r\n    //         Patient p=addressToPatient[patientAddress[i]];\r\n    //         patients[i]=patientStruct(p.getName(),p.getAddress(),p.getUniqueId(),p.getRecords());\r\n    //     }\r\n    //     return patients;\r\n        \r\n    // }\r\n    function addRecord(string memory _uniqueId,string memory _reportHash,string[] memory _medicens,address _issuedBy,address _issuedTo,string memory _patientName,string memory _doctorName) public{\r\n\r\n        // u.addRecord(_uniqueId, _reportHash, _medicens, _issuedBy, _issuedTo, _patientName, _doctorName,  addressToDoctor[_issuedBy], addressToPatient[_issuedTo]);\r\n        u.addRecord(_uniqueId, _reportHash, _medicens, _issuedBy, _issuedTo, _patientName, _doctorName, addressToDoctor[_issuedBy], addressToPatient[_issuedTo]);\r\n    }\r\n\r\n\r\n\r\n    function getRecord(string memory _uniqueId) public view returns(string memory,string memory,string[] memory,address,address,string memory,string memory){\r\n        return u.getRecord(_uniqueId);\r\n        \r\n        // return (r.getUniqueId(),r.getReportHash(),r.getMedices(),r.getIssuedBy(),r.getIssuedTo(),r.getPatientName(),r.getDoctorName(),r.getPatientAddress(),r.getDoctorAddress());\r\n    }\r\n    \r\n  \r\n    \r\n\r\n    //ADD RECORD\r\n    // function addRecord(string memory _uniqueId,string memory _reportHash,string[] memory _medicens,address _issuedBy,address _issuedTo,string memory _patientName,string memory _doctorName,address _patientAddress,address _doctorAddress) public{\r\n    //         Record r=new Record();\r\n    //         r.addRecord(_uniqueId, _reportHash, _medicens, _issuedBy, _issuedTo, _patientName, _doctorName,_patientAddress,_doctorAddress);\r\n    //         uniqueToRecord[_uniqueId]=r;\r\n    //         addressToDoctor[_doctorAddress].addRecord(_uniqueId);\r\n    //         addressToDoctor[_doctorAddress].removePatientRequested(_patientAddress);\r\n    //         addressToPatient[_patientAddress].addRecord(_uniqueId);\r\n    //         // doctorAddressToRecords[_doctorAddress].push(_uniqueId);\r\n    //         // patientAddressRecords[_patientAddress].push(_uniqueId);\r\n\r\n    // }\r\n\r\n    // function getDoctorRecords(address _doctorAddress) public view returns(recordStruct[] memory){\r\n    //     string[] memory allRecords=doctorAddressToRecords[_doctorAddress];\r\n    //     return getRecords(allRecords);\r\n    // }\r\n    // function getPatientRecords(address _patientAddress) public view returns(recordStruct[] memory){\r\n    //     string[] memory allRecords=patientAddressRecords[_patientAddress];\r\n    //     return getRecords(allRecords);\r\n    // }\r\n    // function getRecords(string[] memory allRecords) public view returns(recordStruct[] memory){\r\n    //     recordStruct[] memory records=new recordStruct[](allRecords.length);\r\n    //     for (uint i=0;i<allRecords.length;i++){\r\n    //         Record r=uniqueToRecord[allRecords[i]];\r\n    //         records[i]=recordStruct(r.getUniqueId(),r.getReportHash(),r.getMedices(),r.getIssuedBy(),r.getIssuedTo(),r.getPatientName(),r.getDoctorName(),r.getPatientAddress(),r.getDoctorAddress());\r\n            \r\n\r\n    //     }\r\n    //     return records;\r\n        \r\n    // }\r\n\r\n    \r\n\r\n    //get patient \r\n    function getPatient(address _addr) public view returns(string memory,address,uint,string[] memory){\r\n        Patient p=addressToPatient[_addr];\r\n        return (p.getName(),p.getAddress(),p.getUniqueId(),p.getRecords());\r\n    }\r\n\r\n\r\n    // check for admin \r\n    function isAdminCreated() public view returns(bool){\r\n        return isAdminPresent;\r\n    }\r\n\r\n    // register admin\r\n    function registerAdmin(string memory name) public{\r\n        isAdminPresent=true;\r\n        adminAddress=msg.sender;\r\n        adminName=name;\r\n    }\r\n\r\n    //function to get admin details \r\n    function getAdmin() public view returns(string memory,address,uint[] memory,uint[] memory,address[] memory,address[] memory){\r\n        return (adminName,adminAddress,doctorIds,patientIds,registeredDoctors,patientAddress);\r\n    }\r\n\r\n    // login admin\r\n    function loginAdmin() public{\r\n        isLoggedIn=true;\r\n    }\r\n    // addd doctor unique id from admin\r\n    function addDoctorUniqueId(uint _id) public{\r\n        doctorUidPresent[_id]=true;\r\n        doctorIds.push(_id);\r\n    }\r\n    // add patient unique id from admin\r\n    function addPatientUniqueId(uint _id) public {\r\n        patientUidPresent[_id]=true;\r\n        patientIds.push(_id);\r\n    }\r\n\r\n    // check doctor uid is present\r\n    function checkDoctorUniqueIdPresent(uint _id) public view returns(bool){\r\n        return doctorUidPresent[_id];\r\n    }\r\n\r\n    // check patient uid present\r\n    function checkPatientUniqueIdPresent(uint _uid) public view returns(bool){\r\n        return patientUidPresent[_uid];\r\n    }\r\n\r\n\r\n    // check doctor is registerd by mapping\r\n    function isDoctorRegisterd() public view returns(bool){\r\n        return doctorPresent[msg.sender];\r\n    }\r\n    \r\n    // register doctor\r\n    function registerDoctor(string memory _name,uint id) public {\r\n        Doctor d=new Doctor();\r\n        d.registerDoctor(_name,id,msg.sender);\r\n        addressToDoctor[msg.sender]=d;\r\n        doctorPresent[msg.sender]=true;\r\n        registeredDoctors.push(msg.sender);\r\n\r\n\r\n\r\n    }\r\n\r\n    function loginDoctor() public{\r\n        addressToDoctor[msg.sender].login();\r\n    }\r\n    \r\n    // getDoctor\r\n\r\n    function getDoctor() public view returns(string memory,address,uint,address[] memory,string[] memory) {\r\n        Doctor d=addressToDoctor[msg.sender];\r\n        return (d.getName(),d.getDoctorAddress(),d.getUniqueid(),d.getPatientsRequested(),d.getRecordsIssues());\r\n        \r\n    }\r\n\r\n    //register patient\r\n    function registerPatient(string memory _name,uint _uniqueId) public{\r\n        Patient p=new Patient();\r\n        p.registerPatient(_name,_uniqueId,msg.sender);\r\n        addressToPatient[msg.sender]=p;\r\n        patientPresent[msg.sender]=true;\r\n        patientAddress.push(msg.sender);\r\n    }\r\n\r\n    // login patient\r\n    function loginPatient() public {\r\n            addressToPatient[msg.sender].login();\r\n    }\r\n\r\n\r\n    //check patient registered\r\n\r\n    function isPatientRegistered() public view returns(bool){\r\n        return patientPresent[msg.sender];\r\n    }\r\n\r\n\r\n    //get All doctors\r\n    function getAllRegisteredDoctors(address _addr) public view returns(doctorStruct[] memory){\r\n        doctorStruct[] memory doctors=new doctorStruct[](registeredDoctors.length);\r\n          for(uint i=0;i<registeredDoctors.length;i++){\r\n            Doctor d=addressToDoctor[registeredDoctors[i]];\r\n            doctors[i]=doctorStruct(d.getName(),d.getDoctorAddress(),d.getUniqueid(),d.getRecordsIssues(),d.getPatientsTreated(),d.getPatientRequestedPreset(_addr));\r\n        }\r\n        return doctors;\r\n    }\r\n\r\n    function addPatientRequested(address doctor) public {\r\n        addressToDoctor[doctor].addPatientRequested(msg.sender);\r\n\r\n    }\r\n\r\n\r\n\r\n\r\n\r\n\r\n\r\n}",
  "sourcePath": "C:\\Users\\sthipp005\\Downloads\\Personal\\blockchain\\contracts\\Admins.sol",
  "compiler": {
    "name": "solc",
    "version": "0.8.17+commit.8df45f5f.Emscripten.clang"
  },
  "schemaVersion": "3.4.11",
  "updatedAt": "2023-01-23T15:45:17.321Z",
  "networkType": "ethereum",
  "devdoc": {
    "kind": "dev",
    "methods": {},
    "version": 1
  },
  "userdoc": {
    "kind": "user",
    "methods": {},
    "version": 1
  }
}