{
  "contractName": "Doctor",
  "abi": [
    {
      "inputs": [],
      "name": "doctorAddress",
      "outputs": [
        {
          "internalType": "address",
          "name": "",
          "type": "address"
        }
      ],
      "stateMutability": "view",
      "type": "function",
      "constant": true
    },
    {
      "inputs": [],
      "name": "isLoggedIn",
      "outputs": [
        {
          "internalType": "bool",
          "name": "",
          "type": "bool"
        }
      ],
      "stateMutability": "view",
      "type": "function",
      "constant": true
    },
    {
      "inputs": [],
      "name": "name",
      "outputs": [
        {
          "internalType": "string",
          "name": "",
          "type": "string"
        }
      ],
      "stateMutability": "view",
      "type": "function",
      "constant": true
    },
    {
      "inputs": [
        {
          "internalType": "uint256",
          "name": "",
          "type": "uint256"
        }
      ],
      "name": "patientsRequested",
      "outputs": [
        {
          "internalType": "address",
          "name": "",
          "type": "address"
        }
      ],
      "stateMutability": "view",
      "type": "function",
      "constant": true
    },
    {
      "inputs": [
        {
          "internalType": "uint256",
          "name": "",
          "type": "uint256"
        }
      ],
      "name": "patientsTreated",
      "outputs": [
        {
          "internalType": "address",
          "name": "",
          "type": "address"
        }
      ],
      "stateMutability": "view",
      "type": "function",
      "constant": true
    },
    {
      "inputs": [
        {
          "internalType": "uint256",
          "name": "",
          "type": "uint256"
        }
      ],
      "name": "recordsIssued",
      "outputs": [
        {
          "internalType": "string",
          "name": "",
          "type": "string"
        }
      ],
      "stateMutability": "view",
      "type": "function",
      "constant": true
    },
    {
      "inputs": [],
      "name": "uniqueId",
      "outputs": [
        {
          "internalType": "uint256",
          "name": "",
          "type": "uint256"
        }
      ],
      "stateMutability": "view",
      "type": "function",
      "constant": true
    },
    {
      "inputs": [],
      "name": "getName",
      "outputs": [
        {
          "internalType": "string",
          "name": "",
          "type": "string"
        }
      ],
      "stateMutability": "view",
      "type": "function",
      "constant": true
    },
    {
      "inputs": [],
      "name": "getDoctorAddress",
      "outputs": [
        {
          "internalType": "address",
          "name": "",
          "type": "address"
        }
      ],
      "stateMutability": "view",
      "type": "function",
      "constant": true
    },
    {
      "inputs": [],
      "name": "getUniqueid",
      "outputs": [
        {
          "internalType": "uint256",
          "name": "",
          "type": "uint256"
        }
      ],
      "stateMutability": "view",
      "type": "function",
      "constant": true
    },
    {
      "inputs": [],
      "name": "getPatientsTreated",
      "outputs": [
        {
          "internalType": "address[]",
          "name": "",
          "type": "address[]"
        }
      ],
      "stateMutability": "view",
      "type": "function",
      "constant": true
    },
    {
      "inputs": [],
      "name": "getPatientsRequested",
      "outputs": [
        {
          "internalType": "address[]",
          "name": "",
          "type": "address[]"
        }
      ],
      "stateMutability": "view",
      "type": "function",
      "constant": true
    },
    {
      "inputs": [],
      "name": "getRecordsIssues",
      "outputs": [
        {
          "internalType": "string[]",
          "name": "",
          "type": "string[]"
        }
      ],
      "stateMutability": "view",
      "type": "function",
      "constant": true
    },
    {
      "inputs": [
        {
          "internalType": "address",
          "name": "_add",
          "type": "address"
        }
      ],
      "name": "addPatientRequested",
      "outputs": [],
      "stateMutability": "nonpayable",
      "type": "function"
    },
    {
      "inputs": [
        {
          "internalType": "address",
          "name": "_addr",
          "type": "address"
        }
      ],
      "name": "getPatientRequestedPreset",
      "outputs": [
        {
          "internalType": "bool",
          "name": "",
          "type": "bool"
        }
      ],
      "stateMutability": "view",
      "type": "function",
      "constant": true
    },
    {
      "inputs": [
        {
          "internalType": "address",
          "name": "_aadd",
          "type": "address"
        }
      ],
      "name": "removePatientRequested",
      "outputs": [],
      "stateMutability": "nonpayable",
      "type": "function"
    },
    {
      "inputs": [
        {
          "internalType": "string",
          "name": "_name",
          "type": "string"
        },
        {
          "internalType": "uint256",
          "name": "id",
          "type": "uint256"
        },
        {
          "internalType": "address",
          "name": "_addr",
          "type": "address"
        }
      ],
      "name": "registerDoctor",
      "outputs": [],
      "stateMutability": "nonpayable",
      "type": "function"
    },
    {
      "inputs": [],
      "name": "login",
      "outputs": [],
      "stateMutability": "nonpayable",
      "type": "function"
    },
    {
      "inputs": [],
      "name": "getDoctor",
      "outputs": [
        {
          "internalType": "string",
          "name": "",
          "type": "string"
        },
        {
          "internalType": "address",
          "name": "",
          "type": "address"
        },
        {
          "internalType": "uint256",
          "name": "",
          "type": "uint256"
        }
      ],
      "stateMutability": "view",
      "type": "function",
      "constant": true
    },
    {
      "inputs": [
        {
          "internalType": "string",
          "name": "uid",
          "type": "string"
        }
      ],
      "name": "addRecord",
      "outputs": [],
      "stateMutability": "nonpayable",
      "type": "function"
    }
  ],
  "bytecode": "0x60806040526000600360006101000a81548160ff02191690831515021790555034801561002b57600080fd5b5061172c8061003b6000396000f3fe608060405234801561001057600080fd5b506004361061012c5760003560e01c806391df2ff0116100ad578063b34e97e811610071578063b34e97e814610327578063b7bfcbba14610331578063d81aa8c414610361578063eaa9f0321461037d578063ff76a739146103995761012c565b806391df2ff01461026f578063977dd4d21461029f578063a2296af6146102cf578063a9757c80146102ed578063adecd5e61461030b5761012c565b806325858e89116100f457806325858e89146101c55780633aaa5920146101e3578063424ce26a14610203578063629c52a91461022157806368a7025f1461023f5761012c565b8063017349101461013157806306fdde031461014d57806308febb381461016b57806317d7de7c146101895780631b141e75146101a7575b600080fd5b61014b60048036038101906101469190610ece565b6103b7565b005b610155610414565b6040516101629190610fbc565b60405180910390f35b6101736104a2565b6040516101809190610ff9565b60405180910390f35b6101916104b5565b60405161019e9190610fbc565b60405180910390f35b6101af610547565b6040516101bc91906110d2565b60405180910390f35b6101cd6105d5565b6040516101da9190611103565b60405180910390f35b6101eb6105fb565b6040516101fa9392919061112d565b60405180910390f35b61020b6106bf565b60405161021891906110d2565b60405180910390f35b61022961074d565b604051610236919061116b565b60405180910390f35b61025960048036038101906102549190611186565b610753565b6040516102669190611103565b60405180910390f35b61028960048036038101906102849190611186565b610792565b6040516102969190611103565b60405180910390f35b6102b960048036038101906102b491906111b3565b6107d1565b6040516102c69190610ff9565b60405180910390f35b6102d7610827565b6040516102e4919061116b565b60405180910390f35b6102f5610831565b60405161030291906112ec565b60405180910390f35b610325600480360381019061032091906111b3565b61090a565b005b61032f610a11565b005b61034b60048036038101906103469190611186565b610a2e565b6040516103589190610fbc565b60405180910390f35b61037b6004803603810190610376919061130e565b610ada565b005b610397600480360381019061039291906111b3565b610b12565b005b6103a1610cb6565b6040516103ae9190611103565b60405180910390f35b82600090816103c69190611563565b5080600160006101000a81548173ffffffffffffffffffffffffffffffffffffffff021916908373ffffffffffffffffffffffffffffffffffffffff16021790555081600281905550505050565b6000805461042190611386565b80601f016020809104026020016040519081016040528092919081815260200182805461044d90611386565b801561049a5780601f1061046f5761010080835404028352916020019161049a565b820191906000526020600020905b81548152906001019060200180831161047d57829003601f168201915b505050505081565b600360009054906101000a900460ff1681565b6060600080546104c490611386565b80601f01602080910402602001604051908101604052809291908181526020018280546104f090611386565b801561053d5780601f106105125761010080835404028352916020019161053d565b820191906000526020600020905b81548152906001019060200180831161052057829003601f168201915b5050505050905090565b606060068054806020026020016040519081016040528092919081815260200182805480156105cb57602002820191906000526020600020905b8160009054906101000a900473ffffffffffffffffffffffffffffffffffffffff1673ffffffffffffffffffffffffffffffffffffffff1681526020019060010190808311610581575b5050505050905090565b600160009054906101000a900473ffffffffffffffffffffffffffffffffffffffff1681565b60606000806000600160009054906101000a900473ffffffffffffffffffffffffffffffffffffffff1660025482805461063490611386565b80601f016020809104026020016040519081016040528092919081815260200182805461066090611386565b80156106ad5780601f10610682576101008083540402835291602001916106ad565b820191906000526020600020905b81548152906001019060200180831161069057829003601f168201915b50505050509250925092509250909192565b6060600480548060200260200160405190810160405280929190818152602001828054801561074357602002820191906000526020600020905b8160009054906101000a900473ffffffffffffffffffffffffffffffffffffffff1673ffffffffffffffffffffffffffffffffffffffff16815260200190600101908083116106f9575b5050505050905090565b60025481565b6006818154811061076357600080fd5b906000526020600020016000915054906101000a900473ffffffffffffffffffffffffffffffffffffffff1681565b600481815481106107a257600080fd5b906000526020600020016000915054906101000a900473ffffffffffffffffffffffffffffffffffffffff1681565b6000600860008373ffffffffffffffffffffffffffffffffffffffff1673ffffffffffffffffffffffffffffffffffffffff16815260200190815260200160002060009054906101000a900460ff169050919050565b6000600254905090565b60606005805480602002602001604051908101604052809291908181526020016000905b8282101561090157838290600052602060002001805461087490611386565b80601f01602080910402602001604051908101604052809291908181526020018280546108a090611386565b80156108ed5780601f106108c2576101008083540402835291602001916108ed565b820191906000526020600020905b8154815290600101906020018083116108d057829003601f168201915b505050505081526020019060010190610855565b50505050905090565b6001600860008373ffffffffffffffffffffffffffffffffffffffff1673ffffffffffffffffffffffffffffffffffffffff16815260200190815260200160002060006101000a81548160ff021916908315150217905550600680549050600760008373ffffffffffffffffffffffffffffffffffffffff1673ffffffffffffffffffffffffffffffffffffffff168152602001908152602001600020819055506006819080600181540180825580915050600190039060005260206000200160009091909190916101000a81548173ffffffffffffffffffffffffffffffffffffffff021916908373ffffffffffffffffffffffffffffffffffffffff16021790555050565b6001600360006101000a81548160ff021916908315150217905550565b60058181548110610a3e57600080fd5b906000526020600020016000915090508054610a5990611386565b80601f0160208091040260200160405190810160405280929190818152602001828054610a8590611386565b8015610ad25780601f10610aa757610100808354040283529160200191610ad2565b820191906000526020600020905b815481529060010190602001808311610ab557829003601f168201915b505050505081565b600581908060018154018082558091505060019003906000526020600020016000909190919091509081610b0e9190611563565b5050565b6000600860008373ffffffffffffffffffffffffffffffffffffffff1673ffffffffffffffffffffffffffffffffffffffff16815260200190815260200160002060006101000a81548160ff0219169083151502179055506000600760008373ffffffffffffffffffffffffffffffffffffffff1673ffffffffffffffffffffffffffffffffffffffff1681526020019081526020016000205490506006805490508110610bbf57600080fd5b60066001600680549050610bd39190611664565b81548110610be457610be3611698565b5b9060005260206000200160009054906101000a900473ffffffffffffffffffffffffffffffffffffffff1660068281548110610c2357610c22611698565b5b9060005260206000200160006101000a81548173ffffffffffffffffffffffffffffffffffffffff021916908373ffffffffffffffffffffffffffffffffffffffff1602179055506006805480610c7d57610c7c6116c7565b5b6001900381819060005260206000200160006101000a81549073ffffffffffffffffffffffffffffffffffffffff021916905590555050565b6000600160009054906101000a900473ffffffffffffffffffffffffffffffffffffffff16905090565b6000604051905090565b600080fd5b600080fd5b600080fd5b600080fd5b6000601f19601f8301169050919050565b7f4e487b7100000000000000000000000000000000000000000000000000000000600052604160045260246000fd5b610d4782610cfe565b810181811067ffffffffffffffff82111715610d6657610d65610d0f565b5b80604052505050565b6000610d79610ce0565b9050610d858282610d3e565b919050565b600067ffffffffffffffff821115610da557610da4610d0f565b5b610dae82610cfe565b9050602081019050919050565b82818337600083830152505050565b6000610ddd610dd884610d8a565b610d6f565b905082815260208101848484011115610df957610df8610cf9565b5b610e04848285610dbb565b509392505050565b600082601f830112610e2157610e20610cf4565b5b8135610e31848260208601610dca565b91505092915050565b6000819050919050565b610e4d81610e3a565b8114610e5857600080fd5b50565b600081359050610e6a81610e44565b92915050565b600073ffffffffffffffffffffffffffffffffffffffff82169050919050565b6000610e9b82610e70565b9050919050565b610eab81610e90565b8114610eb657600080fd5b50565b600081359050610ec881610ea2565b92915050565b600080600060608486031215610ee757610ee6610cea565b5b600084013567ffffffffffffffff811115610f0557610f04610cef565b5b610f1186828701610e0c565b9350506020610f2286828701610e5b565b9250506040610f3386828701610eb9565b9150509250925092565b600081519050919050565b600082825260208201905092915050565b60005b83811015610f77578082015181840152602081019050610f5c565b60008484015250505050565b6000610f8e82610f3d565b610f988185610f48565b9350610fa8818560208601610f59565b610fb181610cfe565b840191505092915050565b60006020820190508181036000830152610fd68184610f83565b905092915050565b60008115159050919050565b610ff381610fde565b82525050565b600060208201905061100e6000830184610fea565b92915050565b600081519050919050565b600082825260208201905092915050565b6000819050602082019050919050565b61104981610e90565b82525050565b600061105b8383611040565b60208301905092915050565b6000602082019050919050565b600061107f82611014565b611089818561101f565b935061109483611030565b8060005b838110156110c55781516110ac888261104f565b97506110b783611067565b925050600181019050611098565b5085935050505092915050565b600060208201905081810360008301526110ec8184611074565b905092915050565b6110fd81610e90565b82525050565b600060208201905061111860008301846110f4565b92915050565b61112781610e3a565b82525050565b600060608201905081810360008301526111478186610f83565b905061115660208301856110f4565b611163604083018461111e565b949350505050565b6000602082019050611180600083018461111e565b92915050565b60006020828403121561119c5761119b610cea565b5b60006111aa84828501610e5b565b91505092915050565b6000602082840312156111c9576111c8610cea565b5b60006111d784828501610eb9565b91505092915050565b600081519050919050565b600082825260208201905092915050565b6000819050602082019050919050565b600082825260208201905092915050565b600061122882610f3d565b611232818561120c565b9350611242818560208601610f59565b61124b81610cfe565b840191505092915050565b6000611262838361121d565b905092915050565b6000602082019050919050565b6000611282826111e0565b61128c81856111eb565b93508360208202850161129e856111fc565b8060005b858110156112da57848403895281516112bb8582611256565b94506112c68361126a565b925060208a019950506001810190506112a2565b50829750879550505050505092915050565b600060208201905081810360008301526113068184611277565b905092915050565b60006020828403121561132457611323610cea565b5b600082013567ffffffffffffffff81111561134257611341610cef565b5b61134e84828501610e0c565b91505092915050565b7f4e487b7100000000000000000000000000000000000000000000000000000000600052602260045260246000fd5b6000600282049050600182168061139e57607f821691505b6020821081036113b1576113b0611357565b5b50919050565b60008190508160005260206000209050919050565b60006020601f8301049050919050565b600082821b905092915050565b6000600883026114197fffffffffffffffffffffffffffffffffffffffffffffffffffffffffffffffff826113dc565b61142386836113dc565b95508019841693508086168417925050509392505050565b6000819050919050565b600061146061145b61145684610e3a565b61143b565b610e3a565b9050919050565b6000819050919050565b61147a83611445565b61148e61148682611467565b8484546113e9565b825550505050565b600090565b6114a3611496565b6114ae818484611471565b505050565b5b818110156114d2576114c760008261149b565b6001810190506114b4565b5050565b601f821115611517576114e8816113b7565b6114f1846113cc565b81016020851015611500578190505b61151461150c856113cc565b8301826114b3565b50505b505050565b600082821c905092915050565b600061153a6000198460080261151c565b1980831691505092915050565b60006115538383611529565b9150826002028217905092915050565b61156c82610f3d565b67ffffffffffffffff81111561158557611584610d0f565b5b61158f8254611386565b61159a8282856114d6565b600060209050601f8311600181146115cd57600084156115bb578287015190505b6115c58582611547565b86555061162d565b601f1984166115db866113b7565b60005b82811015611603578489015182556001820191506020850194506020810190506115de565b86831015611620578489015161161c601f891682611529565b8355505b6001600288020188555050505b505050505050565b7f4e487b7100000000000000000000000000000000000000000000000000000000600052601160045260246000fd5b600061166f82610e3a565b915061167a83610e3a565b925082820390508181111561169257611691611635565b5b92915050565b7f4e487b7100000000000000000000000000000000000000000000000000000000600052603260045260246000fd5b7f4e487b7100000000000000000000000000000000000000000000000000000000600052603160045260246000fdfea2646970667358221220cbcd641667f4d700f562ee089b8f9827799949f5028ba586903a3a7634a3f34264736f6c63430008110033",
  "immutableReferences": {},
  "source": "pragma solidity ^0.8.17;\r\n// pragma solidity >=0.7.0 <0.9.0;\r\n\r\n\r\npragma solidity >=0.7.0 <0.9.0;\r\n\r\ncontract Doctor{\r\n    string public  name;\r\n    address  public doctorAddress;\r\n    uint public  uniqueId;\r\n    bool public  isLoggedIn=false;\r\n    address[] public patientsTreated;\r\n    string[] public recordsIssued;\r\n    address[] public patientsRequested;\r\n\r\n    mapping(address=>uint) requestedAddToIndex;\r\n\r\n    mapping(address=>bool) patientRequestedPresent;\r\n\r\n  \r\n\r\n   \r\n    mapping(address=>uint[]) patientToRecords;\r\n\r\n    function getName() public view returns(string memory){\r\n        return name;\r\n\r\n    }\r\n    function getDoctorAddress() public view returns(address ){\r\n        return doctorAddress;\r\n    }\r\n    function getUniqueid() public view returns(uint){\r\n        return uniqueId;\r\n    }\r\n    function getPatientsTreated() public view returns(address[] memory) {\r\n        return patientsTreated;\r\n        \r\n    }\r\n    function getPatientsRequested() public view returns(address[] memory){\r\n        return patientsRequested;\r\n    }\r\n    function getRecordsIssues() public view returns(string[] memory){\r\n        return recordsIssued;\r\n    }\r\n    function addPatientRequested(address _add) public {\r\n        patientRequestedPresent[_add]=true;\r\n        requestedAddToIndex[_add]=patientsRequested.length;\r\n        patientsRequested.push(_add);\r\n        \r\n    }\r\n    function getPatientRequestedPreset(address _addr) public view returns(bool) {\r\n        return patientRequestedPresent[_addr];\r\n        \r\n    }\r\n\r\n    function removePatientRequested(address _aadd) public {\r\n        patientRequestedPresent[_aadd]=false;\r\n        uint index=requestedAddToIndex[_aadd];\r\n        // delete patientsRequested[index];\r\n        require(index < patientsRequested.length);\r\n        patientsRequested[index] = patientsRequested[patientsRequested.length-1];\r\n        patientsRequested.pop();\r\n\r\n    }\r\n    \r\n\r\n    function registerDoctor(string memory _name,uint id,address _addr) public {\r\n        name=_name;\r\n        doctorAddress=_addr;\r\n        uniqueId=id;\r\n\r\n    }\r\n    function login() public {\r\n        isLoggedIn=true;\r\n\r\n    }\r\n    function getDoctor() public view returns(string memory,address,uint ) {\r\n        return (name,doctorAddress,uniqueId);\r\n        \r\n    }\r\n    function addRecord(string memory uid) public{\r\n        recordsIssued.push(uid);\r\n    }\r\n    \r\n\r\n    // function getDoctor() public view returns(string memory ,address,uint,address[] memory,uint[] memory){\r\n    //     // return (name,doctorAddress,uniqueId,patientsTreated,patientToRecords);\r\n        \r\n    //     return (name,doctorAddress,uniqueId,patientsTreated,patientToRecords);\r\n    // }\r\n    \r\n\r\n\r\n\r\n\r\n\r\n\r\n}",
  "sourcePath": "C:\\Users\\sthipp005\\Downloads\\Personal\\blockchain\\contracts\\Doctors.sol",
  "compiler": {
    "name": "solc",
    "version": "0.8.17+commit.8df45f5f.Emscripten.clang"
  },
  "schemaVersion": "3.4.11",
  "updatedAt": "2023-01-23T15:45:17.344Z",
  "networkType": "ethereum",
  "devdoc": {
    "kind": "dev",
    "methods": {},
    "version": 1
  },
  "userdoc": {
    "kind": "user",
    "methods": {},
    "version": 1
  }
}