{
  "contractName": "Patient",
  "abi": [
    {
      "inputs": [],
      "name": "getName",
      "outputs": [
        {
          "internalType": "string",
          "name": "",
          "type": "string"
        }
      ],
      "stateMutability": "view",
      "type": "function",
      "constant": true
    },
    {
      "inputs": [],
      "name": "getAddress",
      "outputs": [
        {
          "internalType": "address",
          "name": "",
          "type": "address"
        }
      ],
      "stateMutability": "view",
      "type": "function",
      "constant": true
    },
    {
      "inputs": [],
      "name": "getUniqueId",
      "outputs": [
        {
          "internalType": "uint256",
          "name": "",
          "type": "uint256"
        }
      ],
      "stateMutability": "view",
      "type": "function",
      "constant": true
    },
    {
      "inputs": [],
      "name": "getRecords",
      "outputs": [
        {
          "internalType": "string[]",
          "name": "",
          "type": "string[]"
        }
      ],
      "stateMutability": "view",
      "type": "function",
      "constant": true
    },
    {
      "inputs": [
        {
          "internalType": "string",
          "name": "_name",
          "type": "string"
        },
        {
          "internalType": "uint256",
          "name": "_uniqueId",
          "type": "uint256"
        },
        {
          "internalType": "address",
          "name": "_addr",
          "type": "address"
        }
      ],
      "name": "registerPatient",
      "outputs": [],
      "stateMutability": "nonpayable",
      "type": "function"
    },
    {
      "inputs": [],
      "name": "login",
      "outputs": [],
      "stateMutability": "nonpayable",
      "type": "function"
    },
    {
      "inputs": [
        {
          "internalType": "string",
          "name": "uid",
          "type": "string"
        }
      ],
      "name": "addRecord",
      "outputs": [],
      "stateMutability": "nonpayable",
      "type": "function"
    }
  ],
  "bytecode": "0x608060405234801561001057600080fd5b50610b6a806100206000396000f3fe608060405234801561001057600080fd5b506004361061007d5760003560e01c8063ab63d7f21161005b578063ab63d7f2146100dc578063b34e97e8146100fa578063c30d742e14610104578063d81aa8c4146101205761007d565b806317d7de7c1461008257806338cc4831146100a05780638eff3c29146100be575b600080fd5b61008a61013c565b604051610097919061041d565b60405180910390f35b6100a86101ce565b6040516100b59190610480565b60405180910390f35b6100c66101f8565b6040516100d391906105a7565b60405180910390f35b6100e46102d1565b6040516100f191906105e2565b60405180910390f35b6101026102db565b005b61011e6004803603810190610119919061079e565b6102f8565b005b61013a6004803603810190610135919061080d565b610355565b005b60606000805461014b90610885565b80601f016020809104026020016040519081016040528092919081815260200182805461017790610885565b80156101c45780601f10610199576101008083540402835291602001916101c4565b820191906000526020600020905b8154815290600101906020018083116101a757829003601f168201915b5050505050905090565b6000600160009054906101000a900473ffffffffffffffffffffffffffffffffffffffff16905090565b60606003805480602002602001604051908101604052809291908181526020016000905b828210156102c857838290600052602060002001805461023b90610885565b80601f016020809104026020016040519081016040528092919081815260200182805461026790610885565b80156102b45780601f10610289576101008083540402835291602001916102b4565b820191906000526020600020905b81548152906001019060200180831161029757829003601f168201915b50505050508152602001906001019061021c565b50505050905090565b6000600254905090565b6001600460006101000a81548160ff021916908315150217905550565b82600090816103079190610a62565b5080600160006101000a81548173ffffffffffffffffffffffffffffffffffffffff021916908373ffffffffffffffffffffffffffffffffffffffff16021790555081600281905550505050565b6003819080600181540180825580915050600190039060005260206000200160009091909190915090816103899190610a62565b5050565b600081519050919050565b600082825260208201905092915050565b60005b838110156103c75780820151818401526020810190506103ac565b60008484015250505050565b6000601f19601f8301169050919050565b60006103ef8261038d565b6103f98185610398565b93506104098185602086016103a9565b610412816103d3565b840191505092915050565b6000602082019050818103600083015261043781846103e4565b905092915050565b600073ffffffffffffffffffffffffffffffffffffffff82169050919050565b600061046a8261043f565b9050919050565b61047a8161045f565b82525050565b60006020820190506104956000830184610471565b92915050565b600081519050919050565b600082825260208201905092915050565b6000819050602082019050919050565b600082825260208201905092915050565b60006104e38261038d565b6104ed81856104c7565b93506104fd8185602086016103a9565b610506816103d3565b840191505092915050565b600061051d83836104d8565b905092915050565b6000602082019050919050565b600061053d8261049b565b61054781856104a6565b935083602082028501610559856104b7565b8060005b8581101561059557848403895281516105768582610511565b945061058183610525565b925060208a0199505060018101905061055d565b50829750879550505050505092915050565b600060208201905081810360008301526105c18184610532565b905092915050565b6000819050919050565b6105dc816105c9565b82525050565b60006020820190506105f760008301846105d3565b92915050565b6000604051905090565b600080fd5b600080fd5b600080fd5b600080fd5b7f4e487b7100000000000000000000000000000000000000000000000000000000600052604160045260246000fd5b610653826103d3565b810181811067ffffffffffffffff821117156106725761067161061b565b5b80604052505050565b60006106856105fd565b9050610691828261064a565b919050565b600067ffffffffffffffff8211156106b1576106b061061b565b5b6106ba826103d3565b9050602081019050919050565b82818337600083830152505050565b60006106e96106e484610696565b61067b565b90508281526020810184848401111561070557610704610616565b5b6107108482856106c7565b509392505050565b600082601f83011261072d5761072c610611565b5b813561073d8482602086016106d6565b91505092915050565b61074f816105c9565b811461075a57600080fd5b50565b60008135905061076c81610746565b92915050565b61077b8161045f565b811461078657600080fd5b50565b60008135905061079881610772565b92915050565b6000806000606084860312156107b7576107b6610607565b5b600084013567ffffffffffffffff8111156107d5576107d461060c565b5b6107e186828701610718565b93505060206107f28682870161075d565b925050604061080386828701610789565b9150509250925092565b60006020828403121561082357610822610607565b5b600082013567ffffffffffffffff8111156108415761084061060c565b5b61084d84828501610718565b91505092915050565b7f4e487b7100000000000000000000000000000000000000000000000000000000600052602260045260246000fd5b6000600282049050600182168061089d57607f821691505b6020821081036108b0576108af610856565b5b50919050565b60008190508160005260206000209050919050565b60006020601f8301049050919050565b600082821b905092915050565b6000600883026109187fffffffffffffffffffffffffffffffffffffffffffffffffffffffffffffffff826108db565b61092286836108db565b95508019841693508086168417925050509392505050565b6000819050919050565b600061095f61095a610955846105c9565b61093a565b6105c9565b9050919050565b6000819050919050565b61097983610944565b61098d61098582610966565b8484546108e8565b825550505050565b600090565b6109a2610995565b6109ad818484610970565b505050565b5b818110156109d1576109c660008261099a565b6001810190506109b3565b5050565b601f821115610a16576109e7816108b6565b6109f0846108cb565b810160208510156109ff578190505b610a13610a0b856108cb565b8301826109b2565b50505b505050565b600082821c905092915050565b6000610a3960001984600802610a1b565b1980831691505092915050565b6000610a528383610a28565b9150826002028217905092915050565b610a6b8261038d565b67ffffffffffffffff811115610a8457610a8361061b565b5b610a8e8254610885565b610a998282856109d5565b600060209050601f831160018114610acc5760008415610aba578287015190505b610ac48582610a46565b865550610b2c565b601f198416610ada866108b6565b60005b82811015610b0257848901518255600182019150602085019450602081019050610add565b86831015610b1f5784890151610b1b601f891682610a28565b8355505b6001600288020188555050505b50505050505056fea2646970667358221220c8e0e188550e9b9d76ae526c99cd5e5c1b82849ab25dca4b229377ce5951914364736f6c63430008110033",
  "immutableReferences": {},
  "source": "// pragma solidity >=0.7.0 <0.9.0;\r\npragma solidity ^0.8.17;\r\n\r\ncontract Patient {\r\n    string  name;\r\n    address patientAddress;\r\n    uint uinqueId;\r\n    string[] records;\r\n    bool isLoggedIn;\r\n\r\n\r\n\r\n    function getName() public view returns(string memory){\r\n        return name;\r\n    }\r\n    function getAddress() public view returns(address) {\r\n        return patientAddress;\r\n    }\r\n    function getUniqueId()public view returns(uint) {\r\n        return uinqueId;\r\n        \r\n    }\r\n    function getRecords() public view returns(string[] memory){\r\n        return records;\r\n    }\r\n    \r\n    mapping(uint=>address) recordGivenBy;\r\n\r\n    function registerPatient(string memory _name,uint _uniqueId,address _addr) public{\r\n        name=_name;\r\n        patientAddress=_addr;\r\n        uinqueId=_uniqueId;\r\n    }\r\n    function login() public {\r\n        isLoggedIn=true;\r\n    }\r\n\r\n    function addRecord(string memory uid) public {\r\n        records.push(uid);\r\n    }\r\n\r\n\r\n\r\n\r\n\r\n    \r\n\r\n\r\n}",
  "sourcePath": "C:\\Users\\sthipp005\\Downloads\\Personal\\blockchain\\contracts\\Patients.sol",
  "compiler": {
    "name": "solc",
    "version": "0.8.17+commit.8df45f5f.Emscripten.clang"
  },
  "schemaVersion": "3.4.11",
  "updatedAt": "2023-01-23T15:45:17.364Z",
  "networkType": "ethereum",
  "devdoc": {
    "kind": "dev",
    "methods": {},
    "version": 1
  },
  "userdoc": {
    "kind": "user",
    "methods": {},
    "version": 1
  }
}