{
  "contractName": "Record",
  "abi": [
    {
      "inputs": [],
      "name": "doctorName",
      "outputs": [
        {
          "internalType": "string",
          "name": "",
          "type": "string"
        }
      ],
      "stateMutability": "view",
      "type": "function"
    },
    {
      "inputs": [],
      "name": "issuedBy",
      "outputs": [
        {
          "internalType": "address",
          "name": "",
          "type": "address"
        }
      ],
      "stateMutability": "view",
      "type": "function"
    },
    {
      "inputs": [],
      "name": "issuedTo",
      "outputs": [
        {
          "internalType": "address",
          "name": "",
          "type": "address"
        }
      ],
      "stateMutability": "view",
      "type": "function"
    },
    {
      "inputs": [
        {
          "internalType": "uint256",
          "name": "",
          "type": "uint256"
        }
      ],
      "name": "medicens",
      "outputs": [
        {
          "internalType": "string",
          "name": "",
          "type": "string"
        }
      ],
      "stateMutability": "view",
      "type": "function"
    },
    {
      "inputs": [],
      "name": "patientNae",
      "outputs": [
        {
          "internalType": "string",
          "name": "",
          "type": "string"
        }
      ],
      "stateMutability": "view",
      "type": "function"
    },
    {
      "inputs": [],
      "name": "reportHash",
      "outputs": [
        {
          "internalType": "string",
          "name": "",
          "type": "string"
        }
      ],
      "stateMutability": "view",
      "type": "function"
    },
    {
      "inputs": [],
      "name": "uniqueId",
      "outputs": [
        {
          "internalType": "string",
          "name": "",
          "type": "string"
        }
      ],
      "stateMutability": "view",
      "type": "function"
    },
    {
      "inputs": [],
      "name": "getPatientName",
      "outputs": [
        {
          "internalType": "string",
          "name": "",
          "type": "string"
        }
      ],
      "stateMutability": "view",
      "type": "function"
    },
    {
      "inputs": [],
      "name": "getDoctorName",
      "outputs": [
        {
          "internalType": "string",
          "name": "",
          "type": "string"
        }
      ],
      "stateMutability": "view",
      "type": "function"
    },
    {
      "inputs": [],
      "name": "getUniqueId",
      "outputs": [
        {
          "internalType": "string",
          "name": "",
          "type": "string"
        }
      ],
      "stateMutability": "view",
      "type": "function"
    },
    {
      "inputs": [],
      "name": "getReportHash",
      "outputs": [
        {
          "internalType": "string",
          "name": "",
          "type": "string"
        }
      ],
      "stateMutability": "view",
      "type": "function"
    },
    {
      "inputs": [],
      "name": "getIssuedBy",
      "outputs": [
        {
          "internalType": "address",
          "name": "",
          "type": "address"
        }
      ],
      "stateMutability": "view",
      "type": "function"
    },
    {
      "inputs": [],
      "name": "getMedices",
      "outputs": [
        {
          "internalType": "string[]",
          "name": "",
          "type": "string[]"
        }
      ],
      "stateMutability": "view",
      "type": "function"
    },
    {
      "inputs": [],
      "name": "getIssuedTo",
      "outputs": [
        {
          "internalType": "address",
          "name": "",
          "type": "address"
        }
      ],
      "stateMutability": "view",
      "type": "function"
    },
    {
      "inputs": [
        {
          "internalType": "string",
          "name": "_uniqueId",
          "type": "string"
        },
        {
          "internalType": "string",
          "name": "_reportHash",
          "type": "string"
        },
        {
          "internalType": "string[]",
          "name": "_medicens",
          "type": "string[]"
        },
        {
          "internalType": "address",
          "name": "_issuedBy",
          "type": "address"
        },
        {
          "internalType": "address",
          "name": "_issuedTo",
          "type": "address"
        },
        {
          "internalType": "string",
          "name": "_patientName",
          "type": "string"
        },
        {
          "internalType": "string",
          "name": "_doctorName",
          "type": "string"
        }
      ],
      "name": "addRecord",
      "outputs": [],
      "stateMutability": "nonpayable",
      "type": "function"
    }
  ],
  "bytecode": "0x608060405234801561001057600080fd5b506113dc806100206000396000f3fe608060405234801561001057600080fd5b50600436106100f55760003560e01c80633c81ba4f11610097578063870be7dd11610066578063870be7dd1461025657806388d8c12b146102745780639babbcf514610292578063ab63d7f2146102ae576100f5565b80633c81ba4f146101de5780633f8b0a1d146101fc578063629c52a91461021a5780637670272314610238576100f5565b80631f4591dd116100d35780631f4591dd146101665780632796c8f0146101845780632efa52fb146101a25780633c438059146101c0576100f5565b80630b6e41e5146100fa578063108681841461011857806317a5357514610148575b600080fd5b6101026102cc565b60405161010f9190610b30565b60405180910390f35b610132600480360381019061012d9190610b9c565b61035a565b60405161013f9190610b30565b60405180910390f35b610150610406565b60405161015d9190610b30565b60405180910390f35b61016e610498565b60405161017b9190610c0a565b60405180910390f35b61018c6104be565b6040516101999190610b30565b60405180910390f35b6101aa610550565b6040516101b79190610c0a565b60405180910390f35b6101c861057a565b6040516101d59190610d31565b60405180910390f35b6101e6610653565b6040516101f39190610b30565b60405180910390f35b6102046106e1565b6040516102119190610c0a565b60405180910390f35b61022261070b565b60405161022f9190610b30565b60405180910390f35b610240610799565b60405161024d9190610b30565b60405180910390f35b61025e610827565b60405161026b9190610b30565b60405180910390f35b61027c6108b9565b6040516102899190610c0a565b60405180910390f35b6102ac60048036038101906102a79190610f9a565b6108df565b005b6102b66109c1565b6040516102c39190610b30565b60405180910390f35b600580546102d9906110f7565b80601f0160208091040260200160405190810160405280929190818152602001828054610305906110f7565b80156103525780601f1061032757610100808354040283529160200191610352565b820191906000526020600020905b81548152906001019060200180831161033557829003601f168201915b505050505081565b6002818154811061036a57600080fd5b906000526020600020016000915090508054610385906110f7565b80601f01602080910402602001604051908101604052809291908181526020018280546103b1906110f7565b80156103fe5780601f106103d3576101008083540402835291602001916103fe565b820191906000526020600020905b8154815290600101906020018083116103e157829003601f168201915b505050505081565b606060018054610415906110f7565b80601f0160208091040260200160405190810160405280929190818152602001828054610441906110f7565b801561048e5780601f106104635761010080835404028352916020019161048e565b820191906000526020600020905b81548152906001019060200180831161047157829003601f168201915b5050505050905090565b600360009054906101000a900473ffffffffffffffffffffffffffffffffffffffff1681565b6060600680546104cd906110f7565b80601f01602080910402602001604051908101604052809291908181526020018280546104f9906110f7565b80156105465780601f1061051b57610100808354040283529160200191610546565b820191906000526020600020905b81548152906001019060200180831161052957829003601f168201915b5050505050905090565b6000600460009054906101000a900473ffffffffffffffffffffffffffffffffffffffff16905090565b60606002805480602002602001604051908101604052809291908181526020016000905b8282101561064a5783829060005260206000200180546105bd906110f7565b80601f01602080910402602001604051908101604052809291908181526020018280546105e9906110f7565b80156106365780601f1061060b57610100808354040283529160200191610636565b820191906000526020600020905b81548152906001019060200180831161061957829003601f168201915b50505050508152602001906001019061059e565b50505050905090565b60018054610660906110f7565b80601f016020809104026020016040519081016040528092919081815260200182805461068c906110f7565b80156106d95780601f106106ae576101008083540402835291602001916106d9565b820191906000526020600020905b8154815290600101906020018083116106bc57829003601f168201915b505050505081565b6000600360009054906101000a900473ffffffffffffffffffffffffffffffffffffffff16905090565b60008054610718906110f7565b80601f0160208091040260200160405190810160405280929190818152602001828054610744906110f7565b80156107915780601f1061076657610100808354040283529160200191610791565b820191906000526020600020905b81548152906001019060200180831161077457829003601f168201915b505050505081565b600680546107a6906110f7565b80601f01602080910402602001604051908101604052809291908181526020018280546107d2906110f7565b801561081f5780601f106107f45761010080835404028352916020019161081f565b820191906000526020600020905b81548152906001019060200180831161080257829003601f168201915b505050505081565b606060058054610836906110f7565b80601f0160208091040260200160405190810160405280929190818152602001828054610862906110f7565b80156108af5780601f10610884576101008083540402835291602001916108af565b820191906000526020600020905b81548152906001019060200180831161089257829003601f168201915b5050505050905090565b600460009054906101000a900473ffffffffffffffffffffffffffffffffffffffff1681565b86600090816108ee91906112d4565b5081600590816108fe91906112d4565b50856001908161090e91906112d4565b5084600290805190602001906109259291906109c6565b5083600360006101000a81548173ffffffffffffffffffffffffffffffffffffffff021916908373ffffffffffffffffffffffffffffffffffffffff16021790555082600460006101000a81548173ffffffffffffffffffffffffffffffffffffffff021916908373ffffffffffffffffffffffffffffffffffffffff16021790555080600690816109b791906112d4565b5050505050505050565b606090565b828054828255906000526020600020908101928215610a0e579160200282015b82811115610a0d5782518290816109fd91906112d4565b50916020019190600101906109e6565b5b509050610a1b9190610a1f565b5090565b5b80821115610a3f5760008181610a369190610a43565b50600101610a20565b5090565b508054610a4f906110f7565b6000825580601f10610a615750610a80565b601f016020900490600052602060002090810190610a7f9190610a83565b5b50565b5b80821115610a9c576000816000905550600101610a84565b5090565b600081519050919050565b600082825260208201905092915050565b60005b83811015610ada578082015181840152602081019050610abf565b60008484015250505050565b6000601f19601f8301169050919050565b6000610b0282610aa0565b610b0c8185610aab565b9350610b1c818560208601610abc565b610b2581610ae6565b840191505092915050565b60006020820190508181036000830152610b4a8184610af7565b905092915050565b6000604051905090565b600080fd5b600080fd5b6000819050919050565b610b7981610b66565b8114610b8457600080fd5b50565b600081359050610b9681610b70565b92915050565b600060208284031215610bb257610bb1610b5c565b5b6000610bc084828501610b87565b91505092915050565b600073ffffffffffffffffffffffffffffffffffffffff82169050919050565b6000610bf482610bc9565b9050919050565b610c0481610be9565b82525050565b6000602082019050610c1f6000830184610bfb565b92915050565b600081519050919050565b600082825260208201905092915050565b6000819050602082019050919050565b600082825260208201905092915050565b6000610c6d82610aa0565b610c778185610c51565b9350610c87818560208601610abc565b610c9081610ae6565b840191505092915050565b6000610ca78383610c62565b905092915050565b6000602082019050919050565b6000610cc782610c25565b610cd18185610c30565b935083602082028501610ce385610c41565b8060005b85811015610d1f5784840389528151610d008582610c9b565b9450610d0b83610caf565b925060208a01995050600181019050610ce7565b50829750879550505050505092915050565b60006020820190508181036000830152610d4b8184610cbc565b905092915050565b600080fd5b600080fd5b7f4e487b7100000000000000000000000000000000000000000000000000000000600052604160045260246000fd5b610d9582610ae6565b810181811067ffffffffffffffff82111715610db457610db3610d5d565b5b80604052505050565b6000610dc7610b52565b9050610dd38282610d8c565b919050565b600067ffffffffffffffff821115610df357610df2610d5d565b5b610dfc82610ae6565b9050602081019050919050565b82818337600083830152505050565b6000610e2b610e2684610dd8565b610dbd565b905082815260208101848484011115610e4757610e46610d58565b5b610e52848285610e09565b509392505050565b600082601f830112610e6f57610e6e610d53565b5b8135610e7f848260208601610e18565b91505092915050565b600067ffffffffffffffff821115610ea357610ea2610d5d565b5b602082029050602081019050919050565b600080fd5b6000610ecc610ec784610e88565b610dbd565b90508083825260208201905060208402830185811115610eef57610eee610eb4565b5b835b81811015610f3657803567ffffffffffffffff811115610f1457610f13610d53565b5b808601610f218982610e5a565b85526020850194505050602081019050610ef1565b5050509392505050565b600082601f830112610f5557610f54610d53565b5b8135610f65848260208601610eb9565b91505092915050565b610f7781610be9565b8114610f8257600080fd5b50565b600081359050610f9481610f6e565b92915050565b600080600080600080600060e0888a031215610fb957610fb8610b5c565b5b600088013567ffffffffffffffff811115610fd757610fd6610b61565b5b610fe38a828b01610e5a565b975050602088013567ffffffffffffffff81111561100457611003610b61565b5b6110108a828b01610e5a565b965050604088013567ffffffffffffffff81111561103157611030610b61565b5b61103d8a828b01610f40565b955050606061104e8a828b01610f85565b945050608061105f8a828b01610f85565b93505060a088013567ffffffffffffffff8111156110805761107f610b61565b5b61108c8a828b01610e5a565b92505060c088013567ffffffffffffffff8111156110ad576110ac610b61565b5b6110b98a828b01610e5a565b91505092959891949750929550565b7f4e487b7100000000000000000000000000000000000000000000000000000000600052602260045260246000fd5b6000600282049050600182168061110f57607f821691505b602082108103611122576111216110c8565b5b50919050565b60008190508160005260206000209050919050565b60006020601f8301049050919050565b600082821b905092915050565b60006008830261118a7fffffffffffffffffffffffffffffffffffffffffffffffffffffffffffffffff8261114d565b611194868361114d565b95508019841693508086168417925050509392505050565b6000819050919050565b60006111d16111cc6111c784610b66565b6111ac565b610b66565b9050919050565b6000819050919050565b6111eb836111b6565b6111ff6111f7826111d8565b84845461115a565b825550505050565b600090565b611214611207565b61121f8184846111e2565b505050565b5b818110156112435761123860008261120c565b600181019050611225565b5050565b601f8211156112885761125981611128565b6112628461113d565b81016020851015611271578190505b61128561127d8561113d565b830182611224565b50505b505050565b600082821c905092915050565b60006112ab6000198460080261128d565b1980831691505092915050565b60006112c4838361129a565b9150826002028217905092915050565b6112dd82610aa0565b67ffffffffffffffff8111156112f6576112f5610d5d565b5b61130082546110f7565b61130b828285611247565b600060209050601f83116001811461133e576000841561132c578287015190505b61133685826112b8565b86555061139e565b601f19841661134c86611128565b60005b828110156113745784890151825560018201915060208501945060208101905061134f565b86831015611391578489015161138d601f89168261129a565b8355505b6001600288020188555050505b50505050505056fea264697066735822122096c1d6bae8683e736a9c7ca761c4d325385eba8c09f8f86215231dc31c8da87a64736f6c63430008110033",
  "immutableReferences": {},
  "source": "// pragma solidity >=0.7.0 <0.9.0;\r\npragma solidity ^0.8.17;\r\n\r\n\r\ncontract Record{\r\n    \r\n    string public uniqueId;\r\n    string public reportHash;\r\n    string[] public medicens;\r\n    address public issuedBy;\r\n    address public issuedTo;\r\n    string public patientNae;\r\n    string public doctorName;\r\n    \r\n\r\n\r\n   \r\n\r\n    function getPatientName() public view returns(string memory) {\r\n        return patientNae;\r\n    }\r\n    function getDoctorName() public view returns(string memory) {\r\n        return doctorName;\r\n    }\r\n    function getUniqueId() public view returns(string memory) {\r\n        \r\n    }\r\n    function getReportHash() public view returns(string memory){\r\n        return reportHash;\r\n    }\r\n    function getIssuedBy() public view returns(address) {\r\n        return issuedBy;  \r\n    }\r\n    function getMedices() public view returns(string[] memory){\r\n        return medicens;\r\n    }\r\n    function getIssuedTo() public view returns(address){\r\n        return issuedTo;\r\n    }\r\n    function addRecord(string memory _uniqueId,string memory _reportHash,string[] memory _medicens,address _issuedBy,address _issuedTo,string memory _patientName,string memory _doctorName) public{\r\n        uniqueId=_uniqueId;\r\n        patientNae=_patientName;\r\n        reportHash=_reportHash;\r\n        medicens=_medicens;\r\n        issuedBy=_issuedBy;\r\n        issuedTo=_issuedTo;\r\n        doctorName=_doctorName;\r\n       \r\n\r\n    }\r\n    \r\n}\r\n",
  "sourcePath": "C:\\Users\\sthipp005\\Downloads\\Personal\\blockchain\\contracts\\Records.sol",
  "compiler": {
    "name": "solc",
    "version": "0.8.17+commit.8df45f5f.Emscripten.clang"
  },
  "schemaVersion": "3.4.11",
  "updatedAt": "2023-01-23T15:45:08.764Z",
  "devdoc": {
    "kind": "dev",
    "methods": {},
    "version": 1
  },
  "userdoc": {
    "kind": "user",
    "methods": {},
    "version": 1
  }
}