{
  "contractName": "Util",
  "abi": [
    {
      "inputs": [
        {
          "internalType": "string",
          "name": "_uniqueId",
          "type": "string"
        },
        {
          "internalType": "string",
          "name": "_reportHash",
          "type": "string"
        },
        {
          "internalType": "string[]",
          "name": "_medicens",
          "type": "string[]"
        },
        {
          "internalType": "address",
          "name": "_issuedBy",
          "type": "address"
        },
        {
          "internalType": "address",
          "name": "_issuedTo",
          "type": "address"
        },
        {
          "internalType": "string",
          "name": "_patientName",
          "type": "string"
        },
        {
          "internalType": "string",
          "name": "_doctorName",
          "type": "string"
        },
        {
          "internalType": "contract Doctor",
          "name": "d",
          "type": "address"
        },
        {
          "internalType": "contract Patient",
          "name": "p",
          "type": "address"
        }
      ],
      "name": "addRecord",
      "outputs": [],
      "stateMutability": "nonpayable",
      "type": "function"
    },
    {
      "inputs": [
        {
          "internalType": "string",
          "name": "_uniqueId",
          "type": "string"
        }
      ],
      "name": "getRecord",
      "outputs": [
        {
          "internalType": "string",
          "name": "",
          "type": "string"
        },
        {
          "internalType": "string",
          "name": "",
          "type": "string"
        },
        {
          "internalType": "string[]",
          "name": "",
          "type": "string[]"
        },
        {
          "internalType": "address",
          "name": "",
          "type": "address"
        },
        {
          "internalType": "address",
          "name": "",
          "type": "address"
        },
        {
          "internalType": "string",
          "name": "",
          "type": "string"
        },
        {
          "internalType": "string",
          "name": "",
          "type": "string"
        }
      ],
      "stateMutability": "view",
      "type": "function"
    }
  ],
  "bytecode": "0x608060405234801561001057600080fd5b50612411806100206000396000f3fe608060405234801561001057600080fd5b50600436106100365760003560e01c806311dd88451461003b578063696cbf3014610071575b600080fd5b610055600480360381019061005091906107cb565b61008d565b60405161006897969594939291906109e0565b60405180910390f35b61008b60048036038101906100869190610c00565b610416565b005b6060806060600080606080600080896040516100a99190610d92565b908152602001604051809103902060009054906101000a900473ffffffffffffffffffffffffffffffffffffffff1690508073ffffffffffffffffffffffffffffffffffffffff1663ab63d7f26040518163ffffffff1660e01b8152600401600060405180830381865afa158015610125573d6000803e3d6000fd5b505050506040513d6000823e3d601f19601f8201168201806040525081019061014e9190610e19565b8173ffffffffffffffffffffffffffffffffffffffff166317a535756040518163ffffffff1660e01b8152600401600060405180830381865afa158015610199573d6000803e3d6000fd5b505050506040513d6000823e3d601f19601f820116820180604052508101906101c29190610e19565b8273ffffffffffffffffffffffffffffffffffffffff16633c4380596040518163ffffffff1660e01b8152600401600060405180830381865afa15801561020d573d6000803e3d6000fd5b505050506040513d6000823e3d601f19601f820116820180604052508101906102369190610f17565b8373ffffffffffffffffffffffffffffffffffffffff16633f8b0a1d6040518163ffffffff1660e01b8152600401602060405180830381865afa158015610281573d6000803e3d6000fd5b505050506040513d601f19601f820116820180604052508101906102a59190610f75565b8473ffffffffffffffffffffffffffffffffffffffff16632efa52fb6040518163ffffffff1660e01b8152600401602060405180830381865afa1580156102f0573d6000803e3d6000fd5b505050506040513d601f19601f820116820180604052508101906103149190610f75565b8573ffffffffffffffffffffffffffffffffffffffff1663870be7dd6040518163ffffffff1660e01b8152600401600060405180830381865afa15801561035f573d6000803e3d6000fd5b505050506040513d6000823e3d601f19601f820116820180604052508101906103889190610e19565b8673ffffffffffffffffffffffffffffffffffffffff16632796c8f06040518163ffffffff1660e01b8152600401600060405180830381865afa1580156103d3573d6000803e3d6000fd5b505050506040513d6000823e3d601f19601f820116820180604052508101906103fc9190610e19565b975097509750975097509750975050919395979092949650565b600060405161042490610664565b604051809103906000f080158015610440573d6000803e3d6000fd5b5090508073ffffffffffffffffffffffffffffffffffffffff16639babbcf58b8b8b8b8b8b8b6040518863ffffffff1660e01b815260040161048897969594939291906109e0565b600060405180830381600087803b1580156104a257600080fd5b505af11580156104b6573d6000803e3d6000fd5b505050508060008b6040516104cb9190610d92565b908152602001604051809103902060006101000a81548173ffffffffffffffffffffffffffffffffffffffff021916908373ffffffffffffffffffffffffffffffffffffffff1602179055508273ffffffffffffffffffffffffffffffffffffffff1663d81aa8c48b6040518263ffffffff1660e01b81526004016105509190610fa2565b600060405180830381600087803b15801561056a57600080fd5b505af115801561057e573d6000803e3d6000fd5b505050508273ffffffffffffffffffffffffffffffffffffffff1663eaa9f032876040518263ffffffff1660e01b81526004016105bb9190610fc4565b600060405180830381600087803b1580156105d557600080fd5b505af11580156105e9573d6000803e3d6000fd5b505050508173ffffffffffffffffffffffffffffffffffffffff1663d81aa8c48b6040518263ffffffff1660e01b81526004016106269190610fa2565b600060405180830381600087803b15801561064057600080fd5b505af1158015610654573d6000803e3d6000fd5b5050505050505050505050505050565b6113fc80610fe083390190565b6000604051905090565b600080fd5b600080fd5b600080fd5b600080fd5b6000601f19601f8301169050919050565b7f4e487b7100000000000000000000000000000000000000000000000000000000600052604160045260246000fd5b6106d88261068f565b810181811067ffffffffffffffff821117156106f7576106f66106a0565b5b80604052505050565b600061070a610671565b905061071682826106cf565b919050565b600067ffffffffffffffff821115610736576107356106a0565b5b61073f8261068f565b9050602081019050919050565b82818337600083830152505050565b600061076e6107698461071b565b610700565b90508281526020810184848401111561078a5761078961068a565b5b61079584828561074c565b509392505050565b600082601f8301126107b2576107b1610685565b5b81356107c284826020860161075b565b91505092915050565b6000602082840312156107e1576107e061067b565b5b600082013567ffffffffffffffff8111156107ff576107fe610680565b5b61080b8482850161079d565b91505092915050565b600081519050919050565b600082825260208201905092915050565b60005b8381101561084e578082015181840152602081019050610833565b60008484015250505050565b600061086582610814565b61086f818561081f565b935061087f818560208601610830565b6108888161068f565b840191505092915050565b600081519050919050565b600082825260208201905092915050565b6000819050602082019050919050565b600082825260208201905092915050565b60006108db82610814565b6108e581856108bf565b93506108f5818560208601610830565b6108fe8161068f565b840191505092915050565b600061091583836108d0565b905092915050565b6000602082019050919050565b600061093582610893565b61093f818561089e565b935083602082028501610951856108af565b8060005b8581101561098d578484038952815161096e8582610909565b94506109798361091d565b925060208a01995050600181019050610955565b50829750879550505050505092915050565b600073ffffffffffffffffffffffffffffffffffffffff82169050919050565b60006109ca8261099f565b9050919050565b6109da816109bf565b82525050565b600060e08201905081810360008301526109fa818a61085a565b90508181036020830152610a0e818961085a565b90508181036040830152610a22818861092a565b9050610a3160608301876109d1565b610a3e60808301866109d1565b81810360a0830152610a50818561085a565b905081810360c0830152610a64818461085a565b905098975050505050505050565b600067ffffffffffffffff821115610a8d57610a8c6106a0565b5b602082029050602081019050919050565b600080fd5b6000610ab6610ab184610a72565b610700565b90508083825260208201905060208402830185811115610ad957610ad8610a9e565b5b835b81811015610b2057803567ffffffffffffffff811115610afe57610afd610685565b5b808601610b0b898261079d565b85526020850194505050602081019050610adb565b5050509392505050565b600082601f830112610b3f57610b3e610685565b5b8135610b4f848260208601610aa3565b91505092915050565b610b61816109bf565b8114610b6c57600080fd5b50565b600081359050610b7e81610b58565b92915050565b6000610b8f826109bf565b9050919050565b610b9f81610b84565b8114610baa57600080fd5b50565b600081359050610bbc81610b96565b92915050565b6000610bcd826109bf565b9050919050565b610bdd81610bc2565b8114610be857600080fd5b50565b600081359050610bfa81610bd4565b92915050565b60008060008060008060008060006101208a8c031215610c2357610c2261067b565b5b60008a013567ffffffffffffffff811115610c4157610c40610680565b5b610c4d8c828d0161079d565b99505060208a013567ffffffffffffffff811115610c6e57610c6d610680565b5b610c7a8c828d0161079d565b98505060408a013567ffffffffffffffff811115610c9b57610c9a610680565b5b610ca78c828d01610b2a565b9750506060610cb88c828d01610b6f565b9650506080610cc98c828d01610b6f565b95505060a08a013567ffffffffffffffff811115610cea57610ce9610680565b5b610cf68c828d0161079d565b94505060c08a013567ffffffffffffffff811115610d1757610d16610680565b5b610d238c828d0161079d565b93505060e0610d348c828d01610bad565b925050610100610d468c828d01610beb565b9150509295985092959850929598565b600081905092915050565b6000610d6c82610814565b610d768185610d56565b9350610d86818560208601610830565b80840191505092915050565b6000610d9e8284610d61565b915081905092915050565b6000610dbc610db78461071b565b610700565b905082815260208101848484011115610dd857610dd761068a565b5b610de3848285610830565b509392505050565b600082601f830112610e0057610dff610685565b5b8151610e10848260208601610da9565b91505092915050565b600060208284031215610e2f57610e2e61067b565b5b600082015167ffffffffffffffff811115610e4d57610e4c610680565b5b610e5984828501610deb565b91505092915050565b6000610e75610e7084610a72565b610700565b90508083825260208201905060208402830185811115610e9857610e97610a9e565b5b835b81811015610edf57805167ffffffffffffffff811115610ebd57610ebc610685565b5b808601610eca8982610deb565b85526020850194505050602081019050610e9a565b5050509392505050565b600082601f830112610efe57610efd610685565b5b8151610f0e848260208601610e62565b91505092915050565b600060208284031215610f2d57610f2c61067b565b5b600082015167ffffffffffffffff811115610f4b57610f4a610680565b5b610f5784828501610ee9565b91505092915050565b600081519050610f6f81610b58565b92915050565b600060208284031215610f8b57610f8a61067b565b5b6000610f9984828501610f60565b91505092915050565b60006020820190508181036000830152610fbc818461085a565b905092915050565b6000602082019050610fd960008301846109d1565b9291505056fe608060405234801561001057600080fd5b506113dc806100206000396000f3fe608060405234801561001057600080fd5b50600436106100f55760003560e01c80633c81ba4f11610097578063870be7dd11610066578063870be7dd1461025657806388d8c12b146102745780639babbcf514610292578063ab63d7f2146102ae576100f5565b80633c81ba4f146101de5780633f8b0a1d146101fc578063629c52a91461021a5780637670272314610238576100f5565b80631f4591dd116100d35780631f4591dd146101665780632796c8f0146101845780632efa52fb146101a25780633c438059146101c0576100f5565b80630b6e41e5146100fa578063108681841461011857806317a5357514610148575b600080fd5b6101026102cc565b60405161010f9190610b30565b60405180910390f35b610132600480360381019061012d9190610b9c565b61035a565b60405161013f9190610b30565b60405180910390f35b610150610406565b60405161015d9190610b30565b60405180910390f35b61016e610498565b60405161017b9190610c0a565b60405180910390f35b61018c6104be565b6040516101999190610b30565b60405180910390f35b6101aa610550565b6040516101b79190610c0a565b60405180910390f35b6101c861057a565b6040516101d59190610d31565b60405180910390f35b6101e6610653565b6040516101f39190610b30565b60405180910390f35b6102046106e1565b6040516102119190610c0a565b60405180910390f35b61022261070b565b60405161022f9190610b30565b60405180910390f35b610240610799565b60405161024d9190610b30565b60405180910390f35b61025e610827565b60405161026b9190610b30565b60405180910390f35b61027c6108b9565b6040516102899190610c0a565b60405180910390f35b6102ac60048036038101906102a79190610f9a565b6108df565b005b6102b66109c1565b6040516102c39190610b30565b60405180910390f35b600580546102d9906110f7565b80601f0160208091040260200160405190810160405280929190818152602001828054610305906110f7565b80156103525780601f1061032757610100808354040283529160200191610352565b820191906000526020600020905b81548152906001019060200180831161033557829003601f168201915b505050505081565b6002818154811061036a57600080fd5b906000526020600020016000915090508054610385906110f7565b80601f01602080910402602001604051908101604052809291908181526020018280546103b1906110f7565b80156103fe5780601f106103d3576101008083540402835291602001916103fe565b820191906000526020600020905b8154815290600101906020018083116103e157829003601f168201915b505050505081565b606060018054610415906110f7565b80601f0160208091040260200160405190810160405280929190818152602001828054610441906110f7565b801561048e5780601f106104635761010080835404028352916020019161048e565b820191906000526020600020905b81548152906001019060200180831161047157829003601f168201915b5050505050905090565b600360009054906101000a900473ffffffffffffffffffffffffffffffffffffffff1681565b6060600680546104cd906110f7565b80601f01602080910402602001604051908101604052809291908181526020018280546104f9906110f7565b80156105465780601f1061051b57610100808354040283529160200191610546565b820191906000526020600020905b81548152906001019060200180831161052957829003601f168201915b5050505050905090565b6000600460009054906101000a900473ffffffffffffffffffffffffffffffffffffffff16905090565b60606002805480602002602001604051908101604052809291908181526020016000905b8282101561064a5783829060005260206000200180546105bd906110f7565b80601f01602080910402602001604051908101604052809291908181526020018280546105e9906110f7565b80156106365780601f1061060b57610100808354040283529160200191610636565b820191906000526020600020905b81548152906001019060200180831161061957829003601f168201915b50505050508152602001906001019061059e565b50505050905090565b60018054610660906110f7565b80601f016020809104026020016040519081016040528092919081815260200182805461068c906110f7565b80156106d95780601f106106ae576101008083540402835291602001916106d9565b820191906000526020600020905b8154815290600101906020018083116106bc57829003601f168201915b505050505081565b6000600360009054906101000a900473ffffffffffffffffffffffffffffffffffffffff16905090565b60008054610718906110f7565b80601f0160208091040260200160405190810160405280929190818152602001828054610744906110f7565b80156107915780601f1061076657610100808354040283529160200191610791565b820191906000526020600020905b81548152906001019060200180831161077457829003601f168201915b505050505081565b600680546107a6906110f7565b80601f01602080910402602001604051908101604052809291908181526020018280546107d2906110f7565b801561081f5780601f106107f45761010080835404028352916020019161081f565b820191906000526020600020905b81548152906001019060200180831161080257829003601f168201915b505050505081565b606060058054610836906110f7565b80601f0160208091040260200160405190810160405280929190818152602001828054610862906110f7565b80156108af5780601f10610884576101008083540402835291602001916108af565b820191906000526020600020905b81548152906001019060200180831161089257829003601f168201915b5050505050905090565b600460009054906101000a900473ffffffffffffffffffffffffffffffffffffffff1681565b86600090816108ee91906112d4565b5081600590816108fe91906112d4565b50856001908161090e91906112d4565b5084600290805190602001906109259291906109c6565b5083600360006101000a81548173ffffffffffffffffffffffffffffffffffffffff021916908373ffffffffffffffffffffffffffffffffffffffff16021790555082600460006101000a81548173ffffffffffffffffffffffffffffffffffffffff021916908373ffffffffffffffffffffffffffffffffffffffff16021790555080600690816109b791906112d4565b5050505050505050565b606090565b828054828255906000526020600020908101928215610a0e579160200282015b82811115610a0d5782518290816109fd91906112d4565b50916020019190600101906109e6565b5b509050610a1b9190610a1f565b5090565b5b80821115610a3f5760008181610a369190610a43565b50600101610a20565b5090565b508054610a4f906110f7565b6000825580601f10610a615750610a80565b601f016020900490600052602060002090810190610a7f9190610a83565b5b50565b5b80821115610a9c576000816000905550600101610a84565b5090565b600081519050919050565b600082825260208201905092915050565b60005b83811015610ada578082015181840152602081019050610abf565b60008484015250505050565b6000601f19601f8301169050919050565b6000610b0282610aa0565b610b0c8185610aab565b9350610b1c818560208601610abc565b610b2581610ae6565b840191505092915050565b60006020820190508181036000830152610b4a8184610af7565b905092915050565b6000604051905090565b600080fd5b600080fd5b6000819050919050565b610b7981610b66565b8114610b8457600080fd5b50565b600081359050610b9681610b70565b92915050565b600060208284031215610bb257610bb1610b5c565b5b6000610bc084828501610b87565b91505092915050565b600073ffffffffffffffffffffffffffffffffffffffff82169050919050565b6000610bf482610bc9565b9050919050565b610c0481610be9565b82525050565b6000602082019050610c1f6000830184610bfb565b92915050565b600081519050919050565b600082825260208201905092915050565b6000819050602082019050919050565b600082825260208201905092915050565b6000610c6d82610aa0565b610c778185610c51565b9350610c87818560208601610abc565b610c9081610ae6565b840191505092915050565b6000610ca78383610c62565b905092915050565b6000602082019050919050565b6000610cc782610c25565b610cd18185610c30565b935083602082028501610ce385610c41565b8060005b85811015610d1f5784840389528151610d008582610c9b565b9450610d0b83610caf565b925060208a01995050600181019050610ce7565b50829750879550505050505092915050565b60006020820190508181036000830152610d4b8184610cbc565b905092915050565b600080fd5b600080fd5b7f4e487b7100000000000000000000000000000000000000000000000000000000600052604160045260246000fd5b610d9582610ae6565b810181811067ffffffffffffffff82111715610db457610db3610d5d565b5b80604052505050565b6000610dc7610b52565b9050610dd38282610d8c565b919050565b600067ffffffffffffffff821115610df357610df2610d5d565b5b610dfc82610ae6565b9050602081019050919050565b82818337600083830152505050565b6000610e2b610e2684610dd8565b610dbd565b905082815260208101848484011115610e4757610e46610d58565b5b610e52848285610e09565b509392505050565b600082601f830112610e6f57610e6e610d53565b5b8135610e7f848260208601610e18565b91505092915050565b600067ffffffffffffffff821115610ea357610ea2610d5d565b5b602082029050602081019050919050565b600080fd5b6000610ecc610ec784610e88565b610dbd565b90508083825260208201905060208402830185811115610eef57610eee610eb4565b5b835b81811015610f3657803567ffffffffffffffff811115610f1457610f13610d53565b5b808601610f218982610e5a565b85526020850194505050602081019050610ef1565b5050509392505050565b600082601f830112610f5557610f54610d53565b5b8135610f65848260208601610eb9565b91505092915050565b610f7781610be9565b8114610f8257600080fd5b50565b600081359050610f9481610f6e565b92915050565b600080600080600080600060e0888a031215610fb957610fb8610b5c565b5b600088013567ffffffffffffffff811115610fd757610fd6610b61565b5b610fe38a828b01610e5a565b975050602088013567ffffffffffffffff81111561100457611003610b61565b5b6110108a828b01610e5a565b965050604088013567ffffffffffffffff81111561103157611030610b61565b5b61103d8a828b01610f40565b955050606061104e8a828b01610f85565b945050608061105f8a828b01610f85565b93505060a088013567ffffffffffffffff8111156110805761107f610b61565b5b61108c8a828b01610e5a565b92505060c088013567ffffffffffffffff8111156110ad576110ac610b61565b5b6110b98a828b01610e5a565b91505092959891949750929550565b7f4e487b7100000000000000000000000000000000000000000000000000000000600052602260045260246000fd5b6000600282049050600182168061110f57607f821691505b602082108103611122576111216110c8565b5b50919050565b60008190508160005260206000209050919050565b60006020601f8301049050919050565b600082821b905092915050565b60006008830261118a7fffffffffffffffffffffffffffffffffffffffffffffffffffffffffffffffff8261114d565b611194868361114d565b95508019841693508086168417925050509392505050565b6000819050919050565b60006111d16111cc6111c784610b66565b6111ac565b610b66565b9050919050565b6000819050919050565b6111eb836111b6565b6111ff6111f7826111d8565b84845461115a565b825550505050565b600090565b611214611207565b61121f8184846111e2565b505050565b5b818110156112435761123860008261120c565b600181019050611225565b5050565b601f8211156112885761125981611128565b6112628461113d565b81016020851015611271578190505b61128561127d8561113d565b830182611224565b50505b505050565b600082821c905092915050565b60006112ab6000198460080261128d565b1980831691505092915050565b60006112c4838361129a565b9150826002028217905092915050565b6112dd82610aa0565b67ffffffffffffffff8111156112f6576112f5610d5d565b5b61130082546110f7565b61130b828285611247565b600060209050601f83116001811461133e576000841561132c578287015190505b61133685826112b8565b86555061139e565b601f19841661134c86611128565b60005b828110156113745784890151825560018201915060208501945060208101905061134f565b86831015611391578489015161138d601f89168261129a565b8355505b6001600288020188555050505b50505050505056fea264697066735822122096c1d6bae8683e736a9c7ca761c4d325385eba8c09f8f86215231dc31c8da87a64736f6c63430008110033a2646970667358221220712b9ec752d14e94387c54705c6dd08e785d943c10813c244563d8aab7beffb764736f6c63430008110033",
  "immutableReferences": {},
  "source": "pragma solidity ^0.8.17;\r\nimport \"./Records.sol\";\r\nimport \"./Doctors.sol\";\r\nimport \"./Patients.sol\";\r\n\r\ncontract Util{\r\n    mapping(string=>Record) uniqueToRecord;\r\n\r\n    function addRecord(string memory _uniqueId,string memory _reportHash,string[] memory _medicens,address _issuedBy,address _issuedTo,string memory _patientName,string memory _doctorName,Doctor d,Patient p) public{\r\n            Record r=new Record();\r\n            r.addRecord(_uniqueId, _reportHash, _medicens, _issuedBy, _issuedTo, _patientName, _doctorName);\r\n            uniqueToRecord[_uniqueId]=r;\r\n            d.addRecord(_uniqueId);\r\n            d.removePatientRequested(_issuedTo);\r\n            p.addRecord(_uniqueId);\r\n            // doctorAddressToRecords[_doctorAddress].push(_uniqueId);\r\n            // patientAddressRecords[_patientAddress].push(_uniqueId);\r\n\r\n    }\r\n    function getRecord(string memory _uniqueId) public view returns(string memory,string memory,string[] memory,address,address,string memory,string memory){\r\n        Record r=uniqueToRecord[_uniqueId];\r\n        return (r.getUniqueId(),r.getReportHash(),r.getMedices(),r.getIssuedBy(),r.getIssuedTo(),r.getPatientName(),r.getDoctorName());\r\n    }\r\n}",
  "sourcePath": "C:\\Users\\sthipp005\\Downloads\\Personal\\blockchain\\contracts\\Util.sol",
  "compiler": {
    "name": "solc",
    "version": "0.8.17+commit.8df45f5f.Emscripten.clang"
  },
  "schemaVersion": "3.4.11",
  "updatedAt": "2023-01-23T15:45:08.773Z",
  "devdoc": {
    "kind": "dev",
    "methods": {},
    "version": 1
  },
  "userdoc": {
    "kind": "user",
    "methods": {},
    "version": 1
  }
}